{
  "contractName": "ICO",
  "abi": [
    {
      "inputs": [
        {
          "internalType": "address",
          "name": "ttkAddress",
          "type": "address"
        },
        {
          "internalType": "address",
          "name": "_multiSigAddr",
          "type": "address"
        },
        {
          "internalType": "uint256",
          "name": "_decimals",
          "type": "uint256"
        },
        {
          "internalType": "uint256",
          "name": "_minAmount",
          "type": "uint256"
        },
        {
          "internalType": "uint256",
          "name": "_maxAmount",
          "type": "uint256"
        },
        {
          "internalType": "uint256",
          "name": "_exchangeRate",
          "type": "uint256"
        },
        {
          "internalType": "uint256",
          "name": "_maxCap",
          "type": "uint256"
        },
        {
          "internalType": "uint256",
          "name": "_vestingDuration",
          "type": "uint256"
        },
        {
          "internalType": "uint256",
          "name": "_stepDuration",
          "type": "uint256"
        }
      ],
      "stateMutability": "nonpayable",
      "type": "constructor"
    },
    {
      "anonymous": false,
      "inputs": [
        {
          "indexed": false,
          "internalType": "address",
          "name": "claimer",
          "type": "address"
        },
        {
          "indexed": false,
          "internalType": "uint256",
          "name": "value",
          "type": "uint256"
        }
      ],
      "name": "Claimed",
      "type": "event"
    },
    {
      "anonymous": false,
      "inputs": [
        {
          "indexed": true,
          "internalType": "address",
          "name": "previousOwner",
          "type": "address"
        },
        {
          "indexed": true,
          "internalType": "address",
          "name": "newOwner",
          "type": "address"
        }
      ],
      "name": "OwnershipTransferred",
      "type": "event"
    },
    {
      "anonymous": false,
      "inputs": [
        {
          "indexed": false,
          "internalType": "address",
          "name": "purchaser",
          "type": "address"
        },
        {
          "indexed": false,
          "internalType": "uint256",
          "name": "value",
          "type": "uint256"
        }
      ],
      "name": "TokenPurchase",
      "type": "event"
    },
    {
      "anonymous": false,
      "inputs": [
        {
          "indexed": false,
          "internalType": "address",
          "name": "emitter",
          "type": "address"
        }
      ],
      "name": "WorkflowStatusChange",
      "type": "event"
    },
    {
      "inputs": [
        {
          "internalType": "address",
          "name": "",
          "type": "address"
        }
      ],
      "name": "UserInfo",
      "outputs": [
        {
          "internalType": "bool",
          "name": "whitelisted",
          "type": "bool"
        },
        {
          "internalType": "uint256",
          "name": "amountBought",
          "type": "uint256"
        },
        {
          "internalType": "uint256",
          "name": "totalClaimed",
          "type": "uint256"
        }
      ],
      "stateMutability": "view",
      "type": "function",
      "constant": true
    },
    {
      "inputs": [],
      "name": "exchangeRate",
      "outputs": [
        {
          "internalType": "uint256",
          "name": "",
          "type": "uint256"
        }
      ],
      "stateMutability": "view",
      "type": "function",
      "constant": true
    },
    {
      "inputs": [],
      "name": "maxAmount",
      "outputs": [
        {
          "internalType": "uint256",
          "name": "",
          "type": "uint256"
        }
      ],
      "stateMutability": "view",
      "type": "function",
      "constant": true
    },
    {
      "inputs": [],
      "name": "maxCap",
      "outputs": [
        {
          "internalType": "uint256",
          "name": "",
          "type": "uint256"
        }
      ],
      "stateMutability": "view",
      "type": "function",
      "constant": true
    },
    {
      "inputs": [],
      "name": "minAmount",
      "outputs": [
        {
          "internalType": "uint256",
          "name": "",
          "type": "uint256"
        }
      ],
      "stateMutability": "view",
      "type": "function",
      "constant": true
    },
    {
      "inputs": [],
      "name": "owner",
      "outputs": [
        {
          "internalType": "address",
          "name": "",
          "type": "address"
        }
      ],
      "stateMutability": "view",
      "type": "function",
      "constant": true
    },
    {
      "inputs": [],
      "name": "renounceOwnership",
      "outputs": [],
      "stateMutability": "nonpayable",
      "type": "function"
    },
    {
      "inputs": [],
      "name": "totalContribution",
      "outputs": [
        {
          "internalType": "uint256",
          "name": "",
          "type": "uint256"
        }
      ],
      "stateMutability": "view",
      "type": "function",
      "constant": true
    },
    {
      "inputs": [
        {
          "internalType": "address",
          "name": "newOwner",
          "type": "address"
        }
      ],
      "name": "transferOwnership",
      "outputs": [],
      "stateMutability": "nonpayable",
      "type": "function"
    },
    {
      "inputs": [],
      "name": "workflowStatus",
      "outputs": [
        {
          "internalType": "enum ICO.WorkflowStatus",
          "name": "",
          "type": "uint8"
        }
      ],
      "stateMutability": "view",
      "type": "function",
      "constant": true
    },
    {
      "stateMutability": "payable",
      "type": "receive",
      "payable": true
    },
    {
      "inputs": [
        {
          "internalType": "address",
          "name": "_address",
          "type": "address"
        }
      ],
      "name": "whitelistAddress",
      "outputs": [],
      "stateMutability": "nonpayable",
      "type": "function"
    },
    {
      "inputs": [
        {
          "internalType": "address",
          "name": "_address",
          "type": "address"
        }
      ],
      "name": "removeFromWhitelist",
      "outputs": [],
      "stateMutability": "nonpayable",
      "type": "function"
    },
    {
      "inputs": [],
      "name": "buyTokens",
      "outputs": [],
      "stateMutability": "payable",
      "type": "function",
      "payable": true
    },
    {
      "inputs": [],
      "name": "claimTokens",
      "outputs": [],
      "stateMutability": "nonpayable",
      "type": "function"
    },
    {
      "inputs": [
        {
          "internalType": "address",
          "name": "_address",
          "type": "address"
        }
      ],
      "name": "claimableAmount",
      "outputs": [
        {
          "internalType": "uint256",
          "name": "",
          "type": "uint256"
        }
      ],
      "stateMutability": "view",
      "type": "function",
      "constant": true
    },
    {
      "inputs": [
        {
          "internalType": "uint256",
          "name": "amount",
          "type": "uint256"
        }
      ],
      "name": "setAmountForSale",
      "outputs": [],
      "stateMutability": "nonpayable",
      "type": "function"
    },
    {
      "inputs": [],
      "name": "withdrawRemaining",
      "outputs": [],
      "stateMutability": "nonpayable",
      "type": "function"
    },
    {
      "inputs": [],
      "name": "withdrawEth",
      "outputs": [],
      "stateMutability": "nonpayable",
      "type": "function"
    },
    {
      "inputs": [],
      "name": "startIco",
      "outputs": [],
      "stateMutability": "nonpayable",
      "type": "function"
    },
    {
      "inputs": [],
      "name": "endIco",
      "outputs": [],
      "stateMutability": "nonpayable",
      "type": "function"
    },
    {
      "inputs": [],
      "name": "startTokenDistribution",
      "outputs": [],
      "stateMutability": "nonpayable",
      "type": "function"
    }
  ],
  "bytecode": "0x60806040523480156200001157600080fd5b506040516200140738038062001407833981016040819052620000349162000157565b6200003f33620000c5565b600180546001600160a01b0319166001600160a01b038b1617905560028790556200006a8662000115565b600555620000788562000115565b60045560038490556200008b8362000115565b600655600c80546001600160a01b0319166001600160a01b039990991698909817909755600a55505050600b929092555062000315915050565b600080546001600160a01b038381166001600160a01b0319831681178455604051919092169283917f8be0079c531659141344cd1fd0a4f28419497f9722a3daafe3b4186f6b6457e09190a35050565b6000600254600a620001289190620002e6565b620001349083620002fb565b92915050565b80516001600160a01b03811681146200015257600080fd5b919050565b60008060008060008060008060006101208a8c0312156200017757600080fd5b620001828a6200013a565b98506200019260208b016200013a565b975060408a0151965060608a0151955060808a0151945060a08a0151935060c08a0151925060e08a015191506101008a015190509295985092959850929598565b634e487b7160e01b600052601160045260246000fd5b600181815b808511156200022a5781600019048211156200020e576200020e620001d3565b808516156200021c57918102915b93841c9390800290620001ee565b509250929050565b600082620002435750600162000134565b81620002525750600062000134565b81600181146200026b5760028114620002765762000296565b600191505062000134565b60ff8411156200028a576200028a620001d3565b50506001821b62000134565b5060208310610133831016604e8410600b8410161715620002bb575081810a62000134565b620002c78383620001e9565b8060001904821115620002de57620002de620001d3565b029392505050565b6000620002f4838362000232565b9392505050565b8082028115828204841417620001345762000134620001d3565b6110e280620003256000396000f3fe60806040526004361061012e5760003560e01c80638ab1d681116100ab578063d01f527f1161006f578063d01f527f146102dc578063d0febe4c146102fc578063e377ee1b14610304578063e657807b14610361578063ee38db9514610376578063f2fde38b1461038b57600080fd5b80638ab1d6811461023b5780638da5cb5b1461025b5780639b2cb5d814610283578063a0ef91df14610299578063a1edffa2146102ae57600080fd5b80635f48f393116100f25780635f48f393146101c6578063715018a6146101dc578063724edf00146101f157806389311e6f14610206578063898850491461021b57600080fd5b80630dcf4b8f1461013a57806323548b8b146101635780633ba0b9a914610179578063415665851461018f57806348c54b9d146101b157600080fd5b3661013557005b600080fd5b34801561014657600080fd5b5061015060075481565b6040519081526020015b60405180910390f35b34801561016f57600080fd5b5061015060065481565b34801561018557600080fd5b5061015060035481565b34801561019b57600080fd5b506101af6101aa366004610e9e565b6103ab565b005b3480156101bd57600080fd5b506101af610449565b3480156101d257600080fd5b5061015060045481565b3480156101e857600080fd5b506101af610650565b3480156101fd57600080fd5b506101af610664565b34801561021257600080fd5b506101af6106fa565b34801561022757600080fd5b50610150610236366004610e9e565b61077f565b34801561024757600080fd5b506101af610256366004610e9e565b610869565b34801561026757600080fd5b506000546040516001600160a01b03909116815260200161015a565b34801561028f57600080fd5b5061015060055481565b3480156102a557600080fd5b506101af6108ff565b3480156102ba57600080fd5b50600c546102cf90600160a01b900460ff1681565b60405161015a9190610ee4565b3480156102e857600080fd5b506101af6102f7366004610f0c565b61099d565b6101af6109b4565b34801561031057600080fd5b5061034461031f366004610e9e565b600d6020526000908152604090208054600182015460029092015460ff909116919083565b60408051931515845260208401929092529082015260600161015a565b34801561036d57600080fd5b506101af610c31565b34801561038257600080fd5b506101af610cb4565b34801561039757600080fd5b506101af6103a6366004610e9e565b610d60565b6103b3610dd9565b6000600c54600160a01b900460ff1660038111156103d3576103d3610ece565b146104255760405162461bcd60e51b815260206004820152601960248201527f43616e2774206c697374206d6f7265206164647265737365730000000000000060448201526064015b60405180910390fd5b6001600160a01b03166000908152600d60205260409020805460ff19166001179055565b336000908152600d602052604090205460ff1661049a5760405162461bcd60e51b815260206004820152600f60248201526e1b9bdd081dda1a5d195b1a5cdd1959608a1b604482015260640161041c565b6003600c54600160a01b900460ff1660038111156104ba576104ba610ece565b146105075760405162461bcd60e51b815260206004820152601f60248201527f596f752063616e277420636c61696d20796f757220746f6b656e732079657400604482015260640161041c565b336000908152600d60205260409020600101546105665760405162461bcd60e51b815260206004820152601860248201527f4e6f2070726573616c652070617274696369706174696f6e0000000000000000604482015260640161041c565b60006105713361077f565b336000908152600d6020526040812060020180549293508392909190610598908490610f3b565b909155505060015460405163a9059cbb60e01b8152336004820152602481018390526001600160a01b039091169063a9059cbb906044016020604051808303816000875af11580156105ee573d6000803e3d6000fd5b505050506040513d601f19601f820116820180604052508101906106129190610f4e565b5060408051338152602081018390527fd8138f8a3f377c5259ca548e70e4c2de94f129f5a11036a15b69513cba2b426a91015b60405180910390a150565b610658610dd9565b6106626000610e33565b565b61066c610dd9565b6002600c54600160a01b900460ff16600381111561068c5761068c610ece565b146106d95760405162461bcd60e51b815260206004820152601760248201527f446973747269627574696f6e2063616e74207374617274000000000000000000604482015260640161041c565b42600955600c80546003919060ff60a01b1916600160a01b835b0217905550565b610702610dd9565b6000600c54600160a01b900460ff16600381111561072257610722610ece565b146107655760405162461bcd60e51b815260206004820152601360248201527249636f2063616e2774207374617274206e6f7760681b604482015260640161041c565b600c80546001919060ff60a01b1916600160a01b836106f3565b6000600a546009546107919190610f3b565b42106107ca576001600160a01b0382166000908152600d6020526040902060028101546001909101546107c49190610f70565b92915050565b6000600954426107da9190610f70565b90506000600b54826107ec9190610f83565b90506000600b54826107fe9190610fa5565b600a546001600160a01b0387166000908152600d60205260408120600101549293509161082c908490610fa5565b6108369190610f83565b6001600160a01b0387166000908152600d602052604090206002015490915061085f9082610f70565b9695505050505050565b610871610dd9565b6000600c54600160a01b900460ff16600381111561089157610891610ece565b146108de5760405162461bcd60e51b815260206004820152601760248201527f43616e277420756e7768696c6973742061646472657373000000000000000000604482015260640161041c565b6001600160a01b03166000908152600d60205260409020805460ff19169055565b610907610dd9565b6040514790600090339083908381818185875af1925050503d806000811461094b576040519150601f19603f3d011682016040523d82523d6000602084013e610950565b606091505b50509050806109995760405162461bcd60e51b8152602060048201526015602482015274115512080e881d1c985b9cd9995c8819985a5b1959605a1b604482015260640161041c565b5050565b6109a5610dd9565b6109ae81610e83565b60085550565b336000908152600d602052604090205460ff16610a055760405162461bcd60e51b815260206004820152600f60248201526e1b9bdd081dda1a5d195b1a5cdd1959608a1b604482015260640161041c565b6001600c54600160a01b900460ff166003811115610a2557610a25610ece565b14610a805760405162461bcd60e51b815260206004820152602560248201527f49434f206861736e2774207374617274656420796574206f722069732066696e6044820152641a5cda195960da1b606482015260840161041c565b600554341015610ad25760405162461bcd60e51b815260206004820152601760248201527f4e6f7420656e6f75676820636f6e747269627574696f6e000000000000000000604482015260640161041c565b600354336000908152600d60205260408120600101549091610af391610f83565b600454909150610b038234610f3b565b1115610b475760405162461bcd60e51b81526020600482015260136024820152720796f752072656163686564206d61782063617606c1b604482015260640161041c565b600654600754610b579034610f3b565b1115610bb15760405162461bcd60e51b815260206004820152602360248201527f6d61784361702069732072656163686564206f7220616c6d6f737420726561636044820152621a195960ea1b606482015260840161041c565b3460076000828254610bc39190610f3b565b9091555050600354610bd59034610fa5565b336000908152600d602052604081206001018054909190610bf7908490610f3b565b9091555050604080513381523460208201527fd8138f8a3f377c5259ca548e70e4c2de94f129f5a11036a15b69513cba2b426a9101610645565b610c39610dd9565b6001600c54600160a01b900460ff166003811115610c5957610c59610ece565b14610c9a5760405162461bcd60e51b815260206004820152601160248201527049636f2063616e277420656e64206e6f7760781b604482015260640161041c565b600c80546002919060ff60a01b1916600160a01b836106f3565b610cbc610dd9565b6000600354600754610cce9190610fa5565b9050600081600854610ce09190610f70565b600154600c5460405163a9059cbb60e01b81526001600160a01b03918216600482015260248101849052929350169063a9059cbb906044016020604051808303816000875af1158015610d37573d6000803e3d6000fd5b505050506040513d601f19601f82011682018060405250810190610d5b9190610f4e565b505050565b610d68610dd9565b6001600160a01b038116610dcd5760405162461bcd60e51b815260206004820152602660248201527f4f776e61626c653a206e6577206f776e657220697320746865207a65726f206160448201526564647265737360d01b606482015260840161041c565b610dd681610e33565b50565b6000546001600160a01b031633146106625760405162461bcd60e51b815260206004820181905260248201527f4f776e61626c653a2063616c6c6572206973206e6f7420746865206f776e6572604482015260640161041c565b600080546001600160a01b038381166001600160a01b0319831681178455604051919092169283917f8be0079c531659141344cd1fd0a4f28419497f9722a3daafe3b4186f6b6457e09190a35050565b6000600254600a610e9491906110a0565b6107c49083610fa5565b600060208284031215610eb057600080fd5b81356001600160a01b0381168114610ec757600080fd5b9392505050565b634e487b7160e01b600052602160045260246000fd5b6020810160048310610f0657634e487b7160e01b600052602160045260246000fd5b91905290565b600060208284031215610f1e57600080fd5b5035919050565b634e487b7160e01b600052601160045260246000fd5b808201808211156107c4576107c4610f25565b600060208284031215610f6057600080fd5b81518015158114610ec757600080fd5b818103818111156107c4576107c4610f25565b600082610fa057634e487b7160e01b600052601260045260246000fd5b500490565b80820281158282048414176107c4576107c4610f25565b600181815b80851115610ff7578160001904821115610fdd57610fdd610f25565b80851615610fea57918102915b93841c9390800290610fc1565b509250929050565b60008261100e575060016107c4565b8161101b575060006107c4565b8160018114611031576002811461103b57611057565b60019150506107c4565b60ff84111561104c5761104c610f25565b50506001821b6107c4565b5060208310610133831016604e8410600b841016171561107a575081810a6107c4565b6110848383610fbc565b806000190482111561109857611098610f25565b029392505050565b6000610ec78383610fff56fea2646970667358221220b1507f26e8e57c1117677cd06b0549b3a15b4eae7795a42fdeaafe676a39966464736f6c63430008110033",
  "immutableReferences": {},
  "source": "// SPDX-License-Identifier: GPL-3.0\n\npragma solidity 0.8.17;\n\nimport \"../node_modules/@openzeppelin/contracts/token/ERC20/IERC20.sol\" ;\nimport \"../node_modules/@openzeppelin/contracts/access/Ownable.sol\" ; \n\ncontract ICO is Ownable {\n\n    IERC20 ttk ;\n    \n            // ::: ICO state variables :: // \n\n    uint decimals ; \n    uint public exchangeRate ; \n    uint public maxAmount ;\n    uint public minAmount ; \n    uint public maxCap ; \n    uint public totalContribution ; \n    /// will be needed in case of a withdrawal of the TTK tokens is needed\n    uint amountForSale ; \n\n            // ::: VESTING state variables ::: // \n\n    uint vestingStartingTime ; \n    uint vestingDuration ; \n    /// duration of a vesting step in seconds. 1 month here aka 4 weeks = 2419200 seconds\n    uint stepDuration ; \n\n    address multiSigAddr ; \n\n    struct userInfo {\n        bool whitelisted ; \n        /// amountBought also corresponds to the total amount of tokens to be vested\n        uint amountBought ; \n        uint totalClaimed ; \n    }\n\n    enum WorkflowStatus {\n        RegisteringAddresses,\n        IcoIsStarted,\n        IcoIsEnded, \n        StartDistribution\n    }\n\n    WorkflowStatus public workflowStatus ;\n\n    mapping (address => userInfo) public  UserInfo ; \n\n    constructor (\n            address ttkAddress, \n            address _multiSigAddr,\n            uint _decimals, \n            uint _minAmount,\n            uint _maxAmount,\n            uint _exchangeRate,\n            uint _maxCap,\n            uint _vestingDuration,\n            uint _stepDuration\n        ) {\n        ttk = IERC20 (ttkAddress) ;\n        decimals = _decimals ;\n        minAmount = toWei(_minAmount) ; \n        maxAmount = toWei(_maxAmount) ;\n        exchangeRate = _exchangeRate ; \n        maxCap = toWei(_maxCap) ; \n        multiSigAddr = _multiSigAddr ; \n        vestingDuration = _vestingDuration ;\n        stepDuration = _stepDuration ;\n    }\n    \n    event TokenPurchase (\n        address purchaser,\n        uint value\n    ) ;\n\n    event Claimed (\n        address claimer,\n        uint value\n    ) ;\n\n    event WorkflowStatusChange (\n        address emitter\n    ) ;\n\n    receive() external payable {}\n\n    modifier onlyWhitelisted () {\n        require (UserInfo[msg.sender].whitelisted, \"not whitelisted\") ;\n    _;\n    }\n\n        // ::: from Eth to Wei ::: // \n\n    function toWei (uint amount) private view returns (uint) {\n        return amount*10**decimals ;\n    }\n\n        // ::: WHITELIST ADDRESSESS ::: //\n\n    function whitelistAddress (address _address) external onlyOwner {\n        require (workflowStatus == WorkflowStatus.RegisteringAddresses, \"Can't list more addresses\") ; \n        UserInfo[_address].whitelisted = true ; \n    }\n\n    function removeFromWhitelist (address _address) external onlyOwner {\n        require (workflowStatus == WorkflowStatus.RegisteringAddresses, \"Can't unwhilist address\");\n        UserInfo[_address].whitelisted = false ; \n    }\n\n        // ::: BUY TOKENS ::: //\n\n    /// send tokens to the smart contract USING this function ///\n    /// there will be an input field for it on the front ///\n    function buyTokens () external payable onlyWhitelisted {\n        require (workflowStatus == WorkflowStatus.IcoIsStarted, \"ICO hasn't started yet or is finished\") ;\n        require (msg.value >= minAmount, \"Not enough contribution\") ;\n        uint contributed = UserInfo[msg.sender].amountBought / exchangeRate ; \n        require (msg.value + contributed <= maxAmount, \"you reached max cap\") ;\n        require (msg.value + totalContribution <= maxCap, \"maxCap is reached or almost reached\") ; \n        totalContribution += msg.value ; \n        UserInfo[msg.sender].amountBought += msg.value * exchangeRate ; \n        emit Claimed (msg.sender, msg.value) ;\n    }\n\n        // ::: CLAIM TOKENS ::: // \n\n\n    function claimTokens () external onlyWhitelisted {\n        require (workflowStatus == WorkflowStatus.StartDistribution, \"You can't claim your tokens yet\") ;\n        require (UserInfo[msg.sender].amountBought > 0, \"No presale participation\") ; \n        uint claimable = claimableAmount(msg.sender) ;\n        UserInfo[msg.sender].totalClaimed += claimable ; \n        ttk.transfer(msg.sender, claimable) ; \n        emit Claimed(msg.sender, claimable);\n    }\n\n    function claimableAmount (address _address) public view returns (uint){\n        if (block.timestamp >= vestingStartingTime + vestingDuration){\n            return (UserInfo[_address].amountBought - \n            UserInfo[_address].totalClaimed) ;\n        }\n        else {\n            uint timeLength = block.timestamp - vestingStartingTime ;\n            uint vestedSteps = timeLength / stepDuration ; \n            uint vestedPeriod = vestedSteps * stepDuration ; \n            uint totalVestedAmount = UserInfo[_address].amountBought * vestedPeriod / vestingDuration ; \n            return totalVestedAmount - UserInfo[_address].totalClaimed ;\n        }\n    }\n\n\n        // ::: ADMIN FUNCTION ::: // \n        // ::: WITHDRAW THE REMAINING TOKENS (ICO NOT SOLD OUT) + ETH ::: // \n\n    /** \n    * this is use in a very urgent situation like : we need to withdraw the tokens inside the contract\n    * to migrate to an other ICO contract but we haven't properly labelled all the variables during deployment\n    * then we need to manually set amountForSale to withdraw the right amount from the contract\n    * \n    * OR it can be used if we want to withdraw the remaining tokens from the ICO \n    */ \n    function setAmountForSale (uint amount) external onlyOwner {\n        amountForSale = toWei(amount) ; \n    }\n\n    function withdrawRemaining () external onlyOwner {\n        uint amountBought = totalContribution * exchangeRate ;\n        uint remaining = amountForSale - amountBought ; \n        ttk.transfer(multiSigAddr, remaining) ; \n    }\n\n    /// Collect the ETH raised \n\n    function withdrawEth () external onlyOwner {\n        uint contractBalance = address(this).balance ; \n        (bool sent, ) = payable(msg.sender).call{value : contractBalance }(\"\") ;\n        require (sent, \"ETH : transfer failed\") ; \n    }\n\n        // ::: STATE ::: //\n\n    function startIco () external onlyOwner {\n        require (workflowStatus == WorkflowStatus.RegisteringAddresses, \"Ico can't start now\");\n        workflowStatus = WorkflowStatus.IcoIsStarted ; \n    }\n\n    function endIco () external onlyOwner {\n        require (workflowStatus == WorkflowStatus.IcoIsStarted, \"Ico can't end now\");\n        workflowStatus = WorkflowStatus.IcoIsEnded ; \n    }\n\n    function startTokenDistribution () external onlyOwner {\n        require (workflowStatus == WorkflowStatus.IcoIsEnded, \"Distribution cant start\");\n        vestingStartingTime = block.timestamp ; \n        workflowStatus = WorkflowStatus.StartDistribution ; \n    }\n\n}",
  "sourcePath": "/Users/youv/Documents/ALYRA-projects/TicketTokenNewFront/tickets-tocken-v2/truffle/contracts/ICO.sol",
  "compiler": {
    "name": "solc",
    "version": "0.8.17+commit.8df45f5f.Emscripten.clang"
  },
  "schemaVersion": "3.4.11",
  "updatedAt": "2022-12-11T23:29:20.946Z",
  "networkType": "ethereum",
  "devdoc": {
    "kind": "dev",
    "methods": {
      "owner()": {
        "details": "Returns the address of the current owner."
      },
      "renounceOwnership()": {
        "details": "Leaves the contract without owner. It will not be possible to call `onlyOwner` functions anymore. Can only be called by the current owner. NOTE: Renouncing ownership will leave the contract without an owner, thereby removing any functionality that is only available to the owner."
      },
      "transferOwnership(address)": {
        "details": "Transfers ownership of the contract to a new account (`newOwner`). Can only be called by the current owner."
      }
    },
    "version": 1
  },
  "userdoc": {
    "kind": "user",
    "methods": {
      "buyTokens()": {
        "notice": "send tokens to the smart contract USING this function /// there will be an input field for it on the front ///"
      },
      "setAmountForSale(uint256)": {
        "notice": "this is use in a very urgent situation like : we need to withdraw the tokens inside the contract to migrate to an other ICO contract but we haven't properly labelled all the variables during deployment then we need to manually set amountForSale to withdraw the right amount from the contract  OR it can be used if we want to withdraw the remaining tokens from the ICO "
      },
      "withdrawEth()": {
        "notice": "Collect the ETH raised "
      }
    },
    "version": 1
  }
}