{
  "contractName": "LPStakingContract",
  "abi": [
    {
      "inputs": [
        {
          "internalType": "address",
          "name": "_ttkToken",
          "type": "address"
        },
        {
          "internalType": "address",
          "name": "_stakingToken",
          "type": "address"
        },
        {
          "internalType": "uint256",
          "name": "initialRewardRate",
          "type": "uint256"
        }
      ],
      "stateMutability": "nonpayable",
      "type": "constructor"
    },
    {
      "anonymous": false,
      "inputs": [
        {
          "indexed": true,
          "internalType": "address",
          "name": "previousOwner",
          "type": "address"
        },
        {
          "indexed": true,
          "internalType": "address",
          "name": "newOwner",
          "type": "address"
        }
      ],
      "name": "OwnershipTransferred",
      "type": "event"
    },
    {
      "inputs": [
        {
          "internalType": "address",
          "name": "",
          "type": "address"
        }
      ],
      "name": "balanceOf",
      "outputs": [
        {
          "internalType": "uint256",
          "name": "",
          "type": "uint256"
        }
      ],
      "stateMutability": "view",
      "type": "function"
    },
    {
      "inputs": [],
      "name": "owner",
      "outputs": [
        {
          "internalType": "address",
          "name": "",
          "type": "address"
        }
      ],
      "stateMutability": "view",
      "type": "function"
    },
    {
      "inputs": [],
      "name": "renounceOwnership",
      "outputs": [],
      "stateMutability": "nonpayable",
      "type": "function"
    },
    {
      "inputs": [],
      "name": "rewardPerTokenStored",
      "outputs": [
        {
          "internalType": "uint256",
          "name": "",
          "type": "uint256"
        }
      ],
      "stateMutability": "view",
      "type": "function"
    },
    {
      "inputs": [],
      "name": "rewardRate",
      "outputs": [
        {
          "internalType": "uint256",
          "name": "",
          "type": "uint256"
        }
      ],
      "stateMutability": "view",
      "type": "function"
    },
    {
      "inputs": [],
      "name": "rewardToken",
      "outputs": [
        {
          "internalType": "contract IERC20",
          "name": "",
          "type": "address"
        }
      ],
      "stateMutability": "view",
      "type": "function"
    },
    {
      "inputs": [
        {
          "internalType": "address",
          "name": "",
          "type": "address"
        }
      ],
      "name": "rewards",
      "outputs": [
        {
          "internalType": "uint256",
          "name": "",
          "type": "uint256"
        }
      ],
      "stateMutability": "view",
      "type": "function"
    },
    {
      "inputs": [],
      "name": "stakingToken",
      "outputs": [
        {
          "internalType": "contract IERC20",
          "name": "",
          "type": "address"
        }
      ],
      "stateMutability": "view",
      "type": "function"
    },
    {
      "inputs": [],
      "name": "totalSupply",
      "outputs": [
        {
          "internalType": "uint256",
          "name": "",
          "type": "uint256"
        }
      ],
      "stateMutability": "view",
      "type": "function"
    },
    {
      "inputs": [
        {
          "internalType": "address",
          "name": "newOwner",
          "type": "address"
        }
      ],
      "name": "transferOwnership",
      "outputs": [],
      "stateMutability": "nonpayable",
      "type": "function"
    },
    {
      "inputs": [],
      "name": "updatedAt",
      "outputs": [
        {
          "internalType": "uint256",
          "name": "",
          "type": "uint256"
        }
      ],
      "stateMutability": "view",
      "type": "function"
    },
    {
      "inputs": [
        {
          "internalType": "address",
          "name": "",
          "type": "address"
        }
      ],
      "name": "userRewardPerTokenPaid",
      "outputs": [
        {
          "internalType": "uint256",
          "name": "",
          "type": "uint256"
        }
      ],
      "stateMutability": "view",
      "type": "function"
    },
    {
      "inputs": [
        {
          "internalType": "uint256",
          "name": "_rewardRate",
          "type": "uint256"
        }
      ],
      "name": "setRewardRate",
      "outputs": [],
      "stateMutability": "nonpayable",
      "type": "function"
    },
    {
      "inputs": [],
      "name": "setTotalRewards",
      "outputs": [],
      "stateMutability": "nonpayable",
      "type": "function"
    },
    {
      "inputs": [],
      "name": "rewardPerToken",
      "outputs": [
        {
          "internalType": "uint256",
          "name": "",
          "type": "uint256"
        }
      ],
      "stateMutability": "view",
      "type": "function"
    },
    {
      "inputs": [
        {
          "internalType": "uint256",
          "name": "_amount",
          "type": "uint256"
        }
      ],
      "name": "stake",
      "outputs": [],
      "stateMutability": "nonpayable",
      "type": "function"
    },
    {
      "inputs": [
        {
          "internalType": "uint256",
          "name": "_amount",
          "type": "uint256"
        }
      ],
      "name": "withdraw",
      "outputs": [],
      "stateMutability": "nonpayable",
      "type": "function"
    },
    {
      "inputs": [
        {
          "internalType": "address",
          "name": "_account",
          "type": "address"
        }
      ],
      "name": "earned",
      "outputs": [
        {
          "internalType": "uint256",
          "name": "",
          "type": "uint256"
        }
      ],
      "stateMutability": "view",
      "type": "function"
    },
    {
      "inputs": [],
      "name": "getReward",
      "outputs": [],
      "stateMutability": "nonpayable",
      "type": "function"
    },
    {
      "inputs": [],
      "name": "emergencyWithdrawal",
      "outputs": [],
      "stateMutability": "nonpayable",
      "type": "function"
    }
  ],
  "bytecode": "0x608060405234801561001057600080fd5b50604051610bd9380380610bd983398101604081905261002f916100db565b6100383361006f565b600180546001600160a01b039384166001600160a01b03199182161790915560028054949093169316929092179055600455610117565b600080546001600160a01b038381166001600160a01b0319831681178455604051919092169283917f8be0079c531659141344cd1fd0a4f28419497f9722a3daafe3b4186f6b6457e09190a35050565b80516001600160a01b03811681146100d657600080fd5b919050565b6000806000606084860312156100f057600080fd5b6100f9846100bf565b9250610107602085016100bf565b9150604084015190509250925092565b610ab3806101266000396000f3fe608060405234801561001057600080fd5b506004361061012b5760003560e01c80637519ab50116100ad578063a694fc3a11610071578063a694fc3a14610255578063cd3daf9d14610268578063df136d6514610270578063f2fde38b14610279578063f7c618c11461028c57600080fd5b80637519ab50146101ff5780637b0a47ee146102085780638b876347146102115780638da5cb5b146102315780639e447fc61461024257600080fd5b80633d18b912116100f45780633d18b9121461019c5780635b0a3843146101a457806370a08231146101ac578063715018a6146101cc57806372f702f3146101d457600080fd5b80628cc262146101305780630700037d1461015657806318160ddd146101765780632e1a7d4d1461017f57806337ae857114610194575b600080fd5b61014361013e366004610984565b61029f565b6040519081526020015b60405180910390f35b610143610164366004610984565b600b6020526000908152604090205481565b61014360065481565b61019261018d3660046109b4565b61031c565b005b61019261046a565b6101926104f6565b6101926105ae565b6101436101ba366004610984565b60096020526000908152604090205481565b61019261063e565b6001546101e7906001600160a01b031681565b6040516001600160a01b03909116815260200161014d565b61014360035481565b61014360045481565b61014361021f366004610984565b600a6020526000908152604090205481565b6000546001600160a01b03166101e7565b6101926102503660046109b4565b610652565b6101926102633660046109b4565b6106b5565b610143610803565b61014360055481565b610192610287366004610984565b610861565b6002546101e7906001600160a01b031681565b6001600160a01b0381166000908152600b6020908152604080832054600a909252822054670de0b6b3a7640000906102d5610803565b6102df91906109e3565b6001600160a01b03851660009081526009602052604090205461030291906109f6565b61030c9190610a0d565b6103169190610a2f565b92915050565b33610325610803565b600555426003556001600160a01b03811615610370576103448161029f565b6001600160a01b0382166000908152600b6020908152604080832093909355600554600a909152919020555b600082116103b25760405162461bcd60e51b815260206004820152600a6024820152690616d6f756e74203d20360b41b60448201526064015b60405180910390fd5b33600090815260096020526040812080548492906103d19084906109e3565b9250508190555081600660008282546103ea91906109e3565b909155505060015460405163a9059cbb60e01b8152336004820152602481018490526001600160a01b039091169063a9059cbb906044015b6020604051808303816000875af1158015610441573d6000803e3d6000fd5b505050506040513d601f19601f820116820180604052508101906104659190610a42565b505050565b6104726108da565b6001546040516370a0823160e01b81523060048201526001600160a01b03909116906370a0823190602401602060405180830381865afa1580156104ba573d6000803e3d6000fd5b505050506040513d601f19601f820116820180604052508101906104de9190610a64565b600860008282546104ef9190610a2f565b9091555050565b336104ff610803565b600555426003556001600160a01b0381161561054a5761051e8161029f565b6001600160a01b0382166000908152600b6020908152604080832093909355600554600a909152919020555b336000908152600b602052604090205480156105aa57336000818152600b602052604080822091909155600254905163a9059cbb60e01b81526004810192909252602482018390526001600160a01b03169063a9059cbb90604401610422565b5050565b6105b66108da565b60006007546008546105c891906109e3565b60025460405163a9059cbb60e01b8152336004820152602481018390529192506001600160a01b03169063a9059cbb906044016020604051808303816000875af115801561061a573d6000803e3d6000fd5b505050506040513d601f19601f820116820180604052508101906105aa9190610a42565b6106466108da565b6106506000610934565b565b61065a6108da565b6000610664610803565b600555426003556001600160a01b038116156106af576106838161029f565b6001600160a01b0382166000908152600b6020908152604080832093909355600554600a909152919020555b50600455565b336106be610803565b600555426003556001600160a01b03811615610709576106dd8161029f565b6001600160a01b0382166000908152600b6020908152604080832093909355600554600a909152919020555b600082116107465760405162461bcd60e51b815260206004820152600a6024820152690616d6f756e74203d20360b41b60448201526064016103a9565b6001546040516323b872dd60e01b8152336004820152306024820152604481018490526001600160a01b03909116906323b872dd906064016020604051808303816000875af115801561079d573d6000803e3d6000fd5b505050506040513d601f19601f820116820180604052508101906107c19190610a42565b5033600090815260096020526040812080548492906107e1908490610a2f565b9250508190555081600660008282546107fa9190610a2f565b90915550505050565b6000600654600003610816575060055490565b60065460035461082690426109e3565b60045461083391906109f6565b61084590670de0b6b3a76400006109f6565b61084f9190610a0d565b60055461085c9190610a2f565b905090565b6108696108da565b6001600160a01b0381166108ce5760405162461bcd60e51b815260206004820152602660248201527f4f776e61626c653a206e6577206f776e657220697320746865207a65726f206160448201526564647265737360d01b60648201526084016103a9565b6108d781610934565b50565b6000546001600160a01b031633146106505760405162461bcd60e51b815260206004820181905260248201527f4f776e61626c653a2063616c6c6572206973206e6f7420746865206f776e657260448201526064016103a9565b600080546001600160a01b038381166001600160a01b0319831681178455604051919092169283917f8be0079c531659141344cd1fd0a4f28419497f9722a3daafe3b4186f6b6457e09190a35050565b60006020828403121561099657600080fd5b81356001600160a01b03811681146109ad57600080fd5b9392505050565b6000602082840312156109c657600080fd5b5035919050565b634e487b7160e01b600052601160045260246000fd5b81810381811115610316576103166109cd565b8082028115828204841417610316576103166109cd565b600082610a2a57634e487b7160e01b600052601260045260246000fd5b500490565b80820180821115610316576103166109cd565b600060208284031215610a5457600080fd5b815180151581146109ad57600080fd5b600060208284031215610a7657600080fd5b505191905056fea2646970667358221220a4557db55ce5aa51ecce6106042e25f53b7440337e685593a1107548cb6ff1ee64736f6c63430008110033",
  "immutableReferences": {},
  "source": "// SPDX-License-Identifier: MIT\n\npragma solidity 0.8.17;\n\nimport \"../node_modules/@openzeppelin/contracts/token/ERC20/IERC20.sol\" ;\nimport \"../node_modules/@openzeppelin/contracts/access/Ownable.sol\" ; \n\ncontract LPStakingContract is Ownable {\n\n    /// stakingToken : lp token TTK - ETH (or TTK - MATIC) or whatever pair we will create \n    IERC20 public stakingToken ;\n    /// rewardToken : TTK\n    IERC20 public rewardToken ;\n\n    uint public updatedAt;\n    uint public rewardRate ;\n    uint public rewardPerTokenStored;\n    uint public totalSupply;\n\n    uint totalRewarded ; \n    uint totalToBeRewarded ;\n\n    mapping(address => uint) public balanceOf;\n    mapping(address => uint) public userRewardPerTokenPaid;\n    mapping(address => uint) public rewards;\n\n    constructor(address _ttkToken, address _stakingToken, uint initialRewardRate) {\n        stakingToken = IERC20(_stakingToken) ;\n        rewardToken = IERC20(_ttkToken) ; \n        rewardRate = initialRewardRate ; \n    }\n\n    modifier updateReward(address _account) {\n        rewardPerTokenStored = rewardPerToken();\n        updatedAt = block.timestamp;\n        if (_account != address(0)) {\n            rewards[_account] = earned(_account);\n            userRewardPerTokenPaid[_account] = rewardPerTokenStored;\n        }\n        _;\n    }\n\n\n    /** manually set the rewardRate\n    * rewardRate = tokens rewarded per second\n    */\n    function setRewardRate (uint _rewardRate) external onlyOwner updateReward(address(0)){\n        rewardRate = _rewardRate ; \n    }\n\n\n                /// ::: POOLS INITIAL SETUP ::: ///\n    \n    /// TO BE RAN BEFORE ANY OTHER FUNCTION AND BEFORE ANY OTHER USER DEPOSITED FUNDS : \n    /// Issue : if a user deposits funds there before us, it's not working\n    function setTotalRewards() external onlyOwner {\n        totalToBeRewarded += stakingToken.balanceOf(address(this)) ; \n    }\n\n    function rewardPerToken() public view returns (uint) {\n        if (totalSupply == 0) {\n            return rewardPerTokenStored;\n        }\n        return\n            rewardPerTokenStored +\n            (rewardRate * (block.timestamp - updatedAt) * 1e18) / totalSupply;\n    }\n\n    function stake(uint _amount) external updateReward(msg.sender) {\n        require(_amount > 0, \"amount = 0\");\n        stakingToken.transferFrom(msg.sender, address(this), _amount);\n        balanceOf[msg.sender] += _amount;\n        totalSupply += _amount;\n    }\n\n    function withdraw(uint _amount) external updateReward(msg.sender) {\n        require(_amount > 0, \"amount = 0\");\n        balanceOf[msg.sender] -= _amount;\n        totalSupply -= _amount;\n        stakingToken.transfer(msg.sender, _amount);\n    }\n\n    function earned(address _account) public view returns (uint) {\n        return\n            ((balanceOf[_account] *\n                (rewardPerToken() - userRewardPerTokenPaid[_account])) / 1e18) +\n            rewards[_account];\n    }\n\n    function getReward() external updateReward(msg.sender) {\n        uint reward = rewards[msg.sender];\n        if (reward > 0) {\n            rewards[msg.sender] = 0;\n            rewardToken.transfer(msg.sender, reward);\n        }\n    }\n\n\n                /// ::: SPECIAL ADMIN FUNCTION ::: ///\n    \n    /// This function is to be used ONLY for emergency purpose\n    /// By executing it, the contract owner (the team) is able to withdraw \n    /// all staking rewards from this contract\n\n    function emergencyWithdrawal () external onlyOwner {\n        /// that way we don't withdraw users from the contract, only the remaining rewards\n        uint remainingRewards = totalToBeRewarded - totalRewarded ; \n        rewardToken.transfer(msg.sender, remainingRewards) ; \n    }\n\n}",
  "sourcePath": "/home/badisse/Perso/Alyra/tickets-tocken-v2/truffle/contracts/LPStakingContract.sol",
  "compiler": {
    "name": "solc",
    "version": "0.8.17+commit.8df45f5f.Emscripten.clang"
  },
  "schemaVersion": "3.4.10",
  "updatedAt": "2022-12-11T13:01:51.331Z",
  "devdoc": {
    "kind": "dev",
    "methods": {
      "owner()": {
        "details": "Returns the address of the current owner."
      },
      "renounceOwnership()": {
        "details": "Leaves the contract without owner. It will not be possible to call `onlyOwner` functions anymore. Can only be called by the current owner. NOTE: Renouncing ownership will leave the contract without an owner, thereby removing any functionality that is only available to the owner."
      },
      "transferOwnership(address)": {
        "details": "Transfers ownership of the contract to a new account (`newOwner`). Can only be called by the current owner."
      }
    },
    "version": 1
  },
  "userdoc": {
    "kind": "user",
    "methods": {
      "emergencyWithdrawal()": {
        "notice": "This function is to be used ONLY for emergency purpose By executing it, the contract owner (the team) is able to withdraw  all staking rewards from this contract"
      },
      "rewardToken()": {
        "notice": "rewardToken : TTK"
      },
      "setRewardRate(uint256)": {
        "notice": "manually set the rewardRate rewardRate = tokens rewarded per second"
      },
      "setTotalRewards()": {
        "notice": "TO BE RAN BEFORE ANY OTHER FUNCTION AND BEFORE ANY OTHER USER DEPOSITED FUNDS :  Issue : if a user deposits funds there before us, it's not working"
      },
      "stakingToken()": {
        "notice": "stakingToken : lp token TTK - ETH (or TTK - MATIC) or whatever pair we will create "
      }
    },
    "version": 1
  }
}