{
  "contractName": "SingleStaking",
  "abi": [
    {
      "inputs": [
        {
          "internalType": "address",
          "name": "_ttkAddress",
          "type": "address"
        }
      ],
      "stateMutability": "nonpayable",
      "type": "constructor"
    },
    {
      "anonymous": false,
      "inputs": [
        {
          "indexed": true,
          "internalType": "address",
          "name": "previousOwner",
          "type": "address"
        },
        {
          "indexed": true,
          "internalType": "address",
          "name": "newOwner",
          "type": "address"
        }
      ],
      "name": "OwnershipTransferred",
      "type": "event"
    },
    {
      "anonymous": false,
      "inputs": [
        {
          "indexed": false,
          "internalType": "address",
          "name": "staker",
          "type": "address"
        },
        {
          "indexed": false,
          "internalType": "uint256",
          "name": "pIdx",
          "type": "uint256"
        }
      ],
      "name": "Staked",
      "type": "event"
    },
    {
      "inputs": [
        {
          "internalType": "uint256",
          "name": "",
          "type": "uint256"
        }
      ],
      "name": "PoolInfo",
      "outputs": [
        {
          "internalType": "uint256",
          "name": "totalStaked",
          "type": "uint256"
        },
        {
          "internalType": "uint256",
          "name": "rewardRate",
          "type": "uint256"
        },
        {
          "internalType": "uint256",
          "name": "rewardPerTokenStaked",
          "type": "uint256"
        },
        {
          "internalType": "uint256",
          "name": "lastUpdate",
          "type": "uint256"
        },
        {
          "internalType": "uint256",
          "name": "lockUpPeriod",
          "type": "uint256"
        }
      ],
      "stateMutability": "view",
      "type": "function",
      "constant": true
    },
    {
      "inputs": [
        {
          "internalType": "uint256",
          "name": "",
          "type": "uint256"
        },
        {
          "internalType": "address",
          "name": "",
          "type": "address"
        }
      ],
      "name": "UserInfo",
      "outputs": [
        {
          "internalType": "uint256",
          "name": "balance",
          "type": "uint256"
        },
        {
          "internalType": "uint256",
          "name": "rewards",
          "type": "uint256"
        },
        {
          "internalType": "uint256",
          "name": "startingTime",
          "type": "uint256"
        },
        {
          "internalType": "uint256",
          "name": "prevRewardPerToken",
          "type": "uint256"
        }
      ],
      "stateMutability": "view",
      "type": "function",
      "constant": true
    },
    {
      "inputs": [],
      "name": "owner",
      "outputs": [
        {
          "internalType": "address",
          "name": "",
          "type": "address"
        }
      ],
      "stateMutability": "view",
      "type": "function",
      "constant": true
    },
    {
      "inputs": [],
      "name": "renounceOwnership",
      "outputs": [],
      "stateMutability": "nonpayable",
      "type": "function"
    },
    {
      "inputs": [
        {
          "internalType": "address",
          "name": "newOwner",
          "type": "address"
        }
      ],
      "name": "transferOwnership",
      "outputs": [],
      "stateMutability": "nonpayable",
      "type": "function"
    },
    {
      "inputs": [
        {
          "internalType": "uint256",
          "name": "pIdx",
          "type": "uint256"
        }
      ],
      "name": "getPoolInfos",
      "outputs": [
        {
          "components": [
            {
              "internalType": "uint256",
              "name": "totalStaked",
              "type": "uint256"
            },
            {
              "internalType": "uint256",
              "name": "rewardRate",
              "type": "uint256"
            },
            {
              "internalType": "uint256",
              "name": "rewardPerTokenStaked",
              "type": "uint256"
            },
            {
              "internalType": "uint256",
              "name": "lastUpdate",
              "type": "uint256"
            },
            {
              "internalType": "uint256",
              "name": "lockUpPeriod",
              "type": "uint256"
            }
          ],
          "internalType": "struct SingleStaking.poolInfo",
          "name": "",
          "type": "tuple"
        }
      ],
      "stateMutability": "view",
      "type": "function",
      "constant": true
    },
    {
      "inputs": [
        {
          "internalType": "uint256",
          "name": "pIdx",
          "type": "uint256"
        },
        {
          "internalType": "address",
          "name": "_address",
          "type": "address"
        }
      ],
      "name": "getUserInfo",
      "outputs": [
        {
          "components": [
            {
              "internalType": "uint256",
              "name": "balance",
              "type": "uint256"
            },
            {
              "internalType": "uint256",
              "name": "rewards",
              "type": "uint256"
            },
            {
              "internalType": "uint256",
              "name": "startingTime",
              "type": "uint256"
            },
            {
              "internalType": "uint256",
              "name": "prevRewardPerToken",
              "type": "uint256"
            }
          ],
          "internalType": "struct SingleStaking.userInfo",
          "name": "",
          "type": "tuple"
        }
      ],
      "stateMutability": "view",
      "type": "function",
      "constant": true
    },
    {
      "inputs": [
        {
          "internalType": "uint256",
          "name": "pIdx",
          "type": "uint256"
        }
      ],
      "name": "rewardPerTokenStaked",
      "outputs": [
        {
          "internalType": "uint256",
          "name": "",
          "type": "uint256"
        }
      ],
      "stateMutability": "view",
      "type": "function",
      "constant": true
    },
    {
      "inputs": [
        {
          "internalType": "address",
          "name": "_address",
          "type": "address"
        },
        {
          "internalType": "uint256",
          "name": "pIdx",
          "type": "uint256"
        }
      ],
      "name": "earned",
      "outputs": [
        {
          "internalType": "uint256",
          "name": "",
          "type": "uint256"
        }
      ],
      "stateMutability": "view",
      "type": "function",
      "constant": true
    },
    {
      "inputs": [],
      "name": "setTotalRewards",
      "outputs": [],
      "stateMutability": "nonpayable",
      "type": "function"
    },
    {
      "inputs": [
        {
          "internalType": "uint256",
          "name": "pIdx",
          "type": "uint256"
        },
        {
          "internalType": "uint256",
          "name": "_rewardRate",
          "type": "uint256"
        },
        {
          "internalType": "uint256",
          "name": "_lockUpPeriod",
          "type": "uint256"
        }
      ],
      "name": "setPool",
      "outputs": [],
      "stateMutability": "nonpayable",
      "type": "function"
    },
    {
      "inputs": [
        {
          "internalType": "uint256",
          "name": "pIdx",
          "type": "uint256"
        },
        {
          "internalType": "uint256",
          "name": "_rewardRate",
          "type": "uint256"
        }
      ],
      "name": "updatePoolReward",
      "outputs": [],
      "stateMutability": "nonpayable",
      "type": "function"
    },
    {
      "inputs": [
        {
          "internalType": "uint256",
          "name": "pIdx",
          "type": "uint256"
        },
        {
          "internalType": "uint256",
          "name": "_amount",
          "type": "uint256"
        }
      ],
      "name": "stake",
      "outputs": [],
      "stateMutability": "nonpayable",
      "type": "function"
    },
    {
      "inputs": [
        {
          "internalType": "uint256",
          "name": "pIdx",
          "type": "uint256"
        },
        {
          "internalType": "uint256",
          "name": "_amount",
          "type": "uint256"
        }
      ],
      "name": "withdraw",
      "outputs": [],
      "stateMutability": "nonpayable",
      "type": "function"
    },
    {
      "inputs": [
        {
          "internalType": "uint256",
          "name": "pIdx",
          "type": "uint256"
        }
      ],
      "name": "claimRewards",
      "outputs": [],
      "stateMutability": "nonpayable",
      "type": "function"
    },
    {
      "inputs": [],
      "name": "emergencyWithdrawal",
      "outputs": [],
      "stateMutability": "nonpayable",
      "type": "function"
    }
  ],
  "bytecode": "0x608060405234801561001057600080fd5b5060405161145538038061145583398101604081905261002f916100ad565b6100383361005d565b600180546001600160a01b0319166001600160a01b03929092169190911790556100dd565b600080546001600160a01b038381166001600160a01b0319831681178455604051919092169283917f8be0079c531659141344cd1fd0a4f28419497f9722a3daafe3b4186f6b6457e09190a35050565b6000602082840312156100bf57600080fd5b81516001600160a01b03811681146100d657600080fd5b9392505050565b611369806100ec6000396000f3fe608060405234801561001057600080fd5b50600436106101005760003560e01c80636a3d0b01116100975780639debbd41116100665780639debbd4114610286578063e24455c4146102e6578063f1c8f964146102f9578063f2fde38b1461030c57600080fd5b80636a3d0b0114610215578063715018a6146102505780637b0472f0146102585780638da5cb5b1461026b57600080fd5b8063441a3e70116100d3578063441a3e70146101925780634911b1e9146101a55780635b0a3843146101fa57806361712a6d1461020257600080fd5b80630962ef79146101055780631069f3b51461011a57806337ae8571146101695780633e491d4714610171575b600080fd5b610118610113366004611172565b61031f565b005b61012d6101283660046111a7565b610579565b60405161016091908151815260208083015190820152604080830151908201526060918201519181019190915260800190565b60405180910390f35b6101186105fe565b61018461017f3660046111d3565b61068a565b604051908152602001610160565b6101186101a03660046111fd565b610701565b6101b86101b3366004611172565b61099e565b6040516101609190600060a082019050825182526020830151602083015260408301516040830152606083015160608301526080830151608083015292915050565b610118610a2b565b610184610210366004611172565b610abf565b610228610223366004611172565b610bb7565b604080519586526020860194909452928401919091526060830152608082015260a001610160565b610118610bec565b6101186102663660046111fd565b610c00565b6000546040516001600160a01b039091168152602001610160565b6102c66102943660046111a7565b601860209081526000928352604080842090915290825290208054600182015460028301546003909301549192909184565b604080519485526020850193909352918301526060820152608001610160565b6101186102f43660046111fd565b610e2c565b61011861030736600461121f565b610fb5565b61011861031a36600461124b565b61104f565b803361032a82610abf565b6004836004811061033d5761033d61126d565b6005020160020181905550426004836004811061035c5761035c61126d565b600502016003018190555060006001600160a01b0316816001600160a01b0316146103f25761038b818361068a565b60008381526018602090815260408083206001600160a01b03861684529091529020600101556004828181106103c3576103c361126d565b600502016002015460008381526018602090815260408083206001600160a01b03861684529091529020600301555b600083815260186020908152604080832033845290915281206001810154600290910154909160048681811061042a5761042a61126d565b6005020160040154905080826104409190611299565b4210156104ba5760405162461bcd60e51b815260206004820152603c60248201527f63616e277420636c61696d2072657761726473206e6f772c207761697420756e60448201527f74696c20796f7572206c6f636b2d75702069732066696e69736865640000000060648201526084015b60405180910390fd5b82156105715760008681526018602090815260408083203380855292528083206001908101939093559154915163a9059cbb60e01b81526004810191909152602481018590526001600160a01b039091169063a9059cbb906044016020604051808303816000875af1158015610534573d6000803e3d6000fd5b505050506040513d601f19601f8201168201806040525081019061055891906112ac565b50826002600082825461056b9190611299565b90915550505b505050505050565b6105a46040518060800160405280600081526020016000815260200160008152602001600081525090565b5060008281526018602090815260408083206001600160a01b038516845282529182902082516080810184528154815260018201549281019290925260028101549282019290925260039091015460608201525b92915050565b6106066110c8565b6001546040516370a0823160e01b81523060048201526001600160a01b03909116906370a0823190602401602060405180830381865afa15801561064e573d6000803e3d6000fd5b505050506040513d601f19601f8201168201806040525081019061067291906112ce565b600360008282546106839190611299565b9091555050565b60008181526018602090815260408083206001600160a01b0386168452909152812080546003820154600190920154909190670de0b6b3a7640000826106cf87610abf565b6106d991906112e7565b6106e390856112fa565b6106ed9190611311565b6106f79082611299565b9695505050505050565b813361070c82610abf565b6004836004811061071f5761071f61126d565b6005020160020181905550426004836004811061073e5761073e61126d565b600502016003018190555060006001600160a01b0316816001600160a01b0316146107d45761076d818361068a565b60008381526018602090815260408083206001600160a01b03861684529091529020600101556004828181106107a5576107a561126d565b600502016002015460008381526018602090815260408083206001600160a01b03861684529091529020600301555b600083116108115760405162461bcd60e51b815260206004820152600a6024820152690616d6f756e74203d20360b41b60448201526064016104b1565b6000848152601860209081526040808320338452909152812060020154906004868181106108415761084161126d565b6005020160040154905080826108579190611299565b4210156108c55760405162461bcd60e51b815260206004820152603660248201527f63616e277420756e7374616b65206e6f772c207761697420756e74696c20796f6044820152751d5c881b1bd8dacb5d5c081a5cc8199a5b9a5cda195960521b60648201526084016104b1565b6000868152601860209081526040808320338452909152812080548792906108ee9084906112e7565b909155508590506004878181106109075761090761126d565b60050201805460009061091b9084906112e7565b909155505060015460405163a9059cbb60e01b8152336004820152602481018790526001600160a01b039091169063a9059cbb906044016020604051808303816000875af1158015610971573d6000803e3d6000fd5b505050506040513d601f19601f8201168201806040525081019061099591906112ac565b50505050505050565b6109d06040518060a0016040528060008152602001600081526020016000815260200160008152602001600081525090565b600482600481106109e3576109e361126d565b600502016040518060a0016040529081600082015481526020016001820154815260200160028201548152602001600382015481526020016004820154815250509050919050565b610a336110c8565b6000600254600354610a4591906112e7565b60015460405163a9059cbb60e01b8152336004820152602481018390529192506001600160a01b03169063a9059cbb906044016020604051808303816000875af1158015610a97573d6000803e3d6000fd5b505050506040513d601f19601f82011682018060405250810190610abb91906112ac565b5050565b600060048260048110610ad457610ad461126d565b6005020154600003610b025760048260048110610af357610af361126d565b60050201600201549050919050565b600060048360048110610b1757610b1761126d565b60050201600301549050600060048460048110610b3657610b3661126d565b60050201600101549050600060048560048110610b5557610b5561126d565b60050201600201549050600060048660048110610b7457610b7461126d565b600502015490508083610b8786426112e7565b610b9191906112fa565b610ba390670de0b6b3a76400006112fa565b610bad9190611311565b6106f79083611299565b60048160048110610bc757600080fd5b6005020180546001820154600283015460038401546004909401549294509092909185565b610bf46110c8565b610bfe6000611122565b565b8133610c0b82610abf565b60048360048110610c1e57610c1e61126d565b60050201600201819055504260048360048110610c3d57610c3d61126d565b600502016003018190555060006001600160a01b0316816001600160a01b031614610cd357610c6c818361068a565b60008381526018602090815260408083206001600160a01b0386168452909152902060010155600482818110610ca457610ca461126d565b600502016002015460008381526018602090815260408083206001600160a01b03861684529091529020600301555b60008311610d105760405162461bcd60e51b815260206004820152600a6024820152690616d6f756e74203d20360b41b60448201526064016104b1565b6001546040516323b872dd60e01b8152336004820152306024820152604481018590526001600160a01b03909116906323b872dd906064016020604051808303816000875af1158015610d67573d6000803e3d6000fd5b505050506040513d601f19601f82011682018060405250810190610d8b91906112ac565b50600084815260186020908152604080832033845290915281204260028201558054859290610dbb908490611299565b90915550839050600485818110610dd457610dd461126d565b600502018054600090610de8908490611299565b909155505060408051338152602081018690527f9e71bc8eea02a63969f509818f2dafb9254532904319f9dbda79b67bd34a5f3d910160405180910390a150505050565b610e346110c8565b816000610e4082610abf565b60048360048110610e5357610e5361126d565b60050201600201819055504260048360048110610e7257610e7261126d565b600502016003018190555060006001600160a01b0316816001600160a01b031614610f0857610ea1818361068a565b60008381526018602090815260408083206001600160a01b0386168452909152902060010155600482818110610ed957610ed961126d565b600502016002015460008381526018602090815260408083206001600160a01b03861684529091529020600301555b8260048560048110610f1c57610f1c61126d565b600502016001015403610f715760405162461bcd60e51b815260206004820152601b60248201527f73616d652052657761726452617465207468616e206265666f7265000000000060448201526064016104b1565b8260048560048110610f8557610f8561126d565b60050201600101819055504260048560048110610fa457610fa461126d565b600502016003018190555050505050565b610fbd6110c8565b610fef6040518060a0016040528060008152602001600081526020016000815260200160008152602001600081525090565b6020810183905260808101829052806004858181106110105761101061126d565b60050201600082015181600001556020820151816001015560408201518160020155606082015181600301556080820151816004015590505050505050565b6110576110c8565b6001600160a01b0381166110bc5760405162461bcd60e51b815260206004820152602660248201527f4f776e61626c653a206e6577206f776e657220697320746865207a65726f206160448201526564647265737360d01b60648201526084016104b1565b6110c581611122565b50565b6000546001600160a01b03163314610bfe5760405162461bcd60e51b815260206004820181905260248201527f4f776e61626c653a2063616c6c6572206973206e6f7420746865206f776e657260448201526064016104b1565b600080546001600160a01b038381166001600160a01b0319831681178455604051919092169283917f8be0079c531659141344cd1fd0a4f28419497f9722a3daafe3b4186f6b6457e09190a35050565b60006020828403121561118457600080fd5b5035919050565b80356001600160a01b03811681146111a257600080fd5b919050565b600080604083850312156111ba57600080fd5b823591506111ca6020840161118b565b90509250929050565b600080604083850312156111e657600080fd5b6111ef8361118b565b946020939093013593505050565b6000806040838503121561121057600080fd5b50508035926020909101359150565b60008060006060848603121561123457600080fd5b505081359360208301359350604090920135919050565b60006020828403121561125d57600080fd5b6112668261118b565b9392505050565b634e487b7160e01b600052603260045260246000fd5b634e487b7160e01b600052601160045260246000fd5b808201808211156105f8576105f8611283565b6000602082840312156112be57600080fd5b8151801515811461126657600080fd5b6000602082840312156112e057600080fd5b5051919050565b818103818111156105f8576105f8611283565b80820281158282048414176105f8576105f8611283565b60008261132e57634e487b7160e01b600052601260045260246000fd5b50049056fea2646970667358221220517a755b0658c87ff93350f134a25782592866155d8ec40888d097afd02d54b164736f6c63430008110033",
  "immutableReferences": {},
  "source": "// SPDX-License-Identifier: GPL-3.0\n\npragma solidity 0.8.17;\n\nimport \"../node_modules/@openzeppelin/contracts/token/ERC20/IERC20.sol\" ;\nimport \"../node_modules/@openzeppelin/contracts/access/Ownable.sol\" ; \n\n        // ::: STAKING CONTRACT :: //\n\n/// The staking contract below will cover 4 lockup possibilities. \n/// they can be defined after contract deployment\n/// Pool 0 has by definition no token lockup period\n\ncontract SingleStaking is Ownable {\n\n    IERC20 stakingToken ; \n\n    uint totalRewarded ; \n    uint totalRewards ;\n\n\n    struct userInfo {\n        /// user staked balance\n        uint balance ; \n        /// user rewards \n        uint rewards ; \n        /// when the user started to stake\n        uint startingTime ; \n        /// needed to calculate and update the rewards correctly\n        uint prevRewardPerToken ; \n    }\n\n    struct poolInfo {\n        /// pool's total tokens staked inside\n        uint totalStaked ; \n        /// pool's number of tokens rewarded per second \n        uint rewardRate ; \n        /// accumulation of the reward rates \n        uint rewardPerTokenStaked ; \n        /// change time marker\n        uint lastUpdate ; \n        /// locukup period of the pool \n        uint lockUpPeriod ; \n    }\n\n    /// PoolInfo contains the different pool infos of each pool\n    poolInfo[4] public PoolInfo ; \n\n    /// We keep users infos for each pool. Uint : pool idx\n    mapping (uint => mapping (address => userInfo)) public UserInfo;\n\n    event Staked(address staker, uint pIdx);\n\n    constructor (address _ttkAddress){\n        stakingToken = IERC20 (_ttkAddress) ; \n    }\n\n        /// ::: GETTERS ::: ///\n\n    function getPoolInfos (uint pIdx) public view returns (poolInfo memory){\n        return PoolInfo[pIdx] ;\n    }\n\n    function getUserInfo (uint pIdx, address _address) public view returns (userInfo memory){\n        return UserInfo[pIdx][_address] ;\n    }\n\n        /// ::: REWARDS TRACKING AND UPDATES ::: ///\n\n    modifier updateRewards (uint pIdx, address _address) {\n        PoolInfo[pIdx].rewardPerTokenStaked = rewardPerTokenStaked(pIdx) ;\n        PoolInfo[pIdx].lastUpdate = block.timestamp ; \n        if (_address != address(0)){\n            UserInfo[pIdx][_address].rewards = earned (_address, pIdx) ; \n            UserInfo[pIdx][_address].prevRewardPerToken = PoolInfo[pIdx].rewardPerTokenStaked ; \n        }\n        _;\n    }\n\n    function rewardPerTokenStaked (uint pIdx) public view returns (uint) {\n        if (PoolInfo[pIdx].totalStaked == 0){\n            return PoolInfo[pIdx].rewardPerTokenStaked ; \n        }\n        uint _lastUpdate = PoolInfo[pIdx].lastUpdate ;\n        uint _rewardRate = PoolInfo[pIdx].rewardRate ;\n        uint _rewardPerTokenStaked = PoolInfo[pIdx].rewardPerTokenStaked ;\n        uint _totalStaked = PoolInfo[pIdx].totalStaked ; \n        return (_rewardPerTokenStaked + (block.timestamp - _lastUpdate) * _rewardRate * 10**18\n        / _totalStaked) ; \n    }\n\n    function earned (address _address, uint pIdx) public view returns (uint){\n        uint _balance = UserInfo[pIdx][_address].balance ; \n        uint _prevRewardPerToken = UserInfo[pIdx][_address].prevRewardPerToken ; \n        uint _rewards = UserInfo[pIdx][_address].rewards ; \n        return _rewards + (_balance * (rewardPerTokenStaked(pIdx) - _prevRewardPerToken) / 10**18) ;\n    }\n\n            /// ::: POOLS INITIAL SETUP ::: ///\n    \n    /// TO BE RAN BEFORE ANY OTHER FUNCTION AND BEFORE ANY OTHER USER DEPOSITED FUNDS : \n    /// Issue : if a user deposits funds there before us, it's not working\n    function setTotalRewards() external onlyOwner {\n        totalRewards += stakingToken.balanceOf(address(this)) ; \n    }\n\n    /// this is a function for the owner to create the staking pools\n    /// the pools must be initiated in the following order : \n    /// 1) no lock-up 2) 1 month lock-up 3) 3 months lock-up 4) 6 months lock-up 5) LP staking pool\n    function setPool (uint pIdx, uint _rewardRate, uint _lockUpPeriod) external onlyOwner {\n        poolInfo memory poolinfo ; \n        poolinfo.rewardRate = _rewardRate ; \n        poolinfo.lockUpPeriod = _lockUpPeriod ; \n        PoolInfo[pIdx] = poolinfo ; \n    }\n\n\n            /// ::: POOLS UPDATES ::: ///\n\n    function updatePoolReward (uint pIdx, uint _rewardRate) external onlyOwner updateRewards(pIdx, address(0)) {\n        require (PoolInfo[pIdx].rewardRate != _rewardRate, \"same RewardRate than before\") ;\n        PoolInfo[pIdx].rewardRate = _rewardRate ; \n        PoolInfo[pIdx].lastUpdate = block.timestamp ; \n        \n    }\n\n\n            /// ::: USERS FUNCTIONS FOR SINGLE STAKING ::: ///\n\n    function resetUserTimer (uint pIdx) private {\n        UserInfo[pIdx][msg.sender].startingTime = block.timestamp ; \n    }\n\n    function stake(uint pIdx, uint _amount) external updateRewards (pIdx, msg.sender) {\n        require(_amount > 0, \"amount = 0\");\n        stakingToken.transferFrom(msg.sender, address(this), _amount);\n        resetUserTimer (pIdx) ; \n        UserInfo[pIdx][msg.sender].balance += _amount ; \n        PoolInfo[pIdx].totalStaked += _amount ; \n        emit Staked(msg.sender, pIdx) ;\n    }\n\n    function withdraw(uint pIdx, uint _amount) external updateRewards (pIdx, msg.sender) {\n        require(_amount > 0, \"amount = 0\");\n        uint _startingTime = UserInfo[pIdx][msg.sender].startingTime ;\n        uint _lockUpPeriod = PoolInfo[pIdx].lockUpPeriod;\n        require (block.timestamp >= _startingTime + _lockUpPeriod, \"can't unstake now, wait until your lock-up is finished\") ; \n        UserInfo[pIdx][msg.sender].balance -= _amount ; \n        PoolInfo[pIdx].totalStaked -= _amount ; \n        stakingToken.transfer(msg.sender, _amount) ;\n    }\n\n    function claimRewards (uint pIdx) external updateRewards(pIdx, msg.sender){\n        uint reward = UserInfo[pIdx][msg.sender].rewards ;\n        uint _startingTime = UserInfo[pIdx][msg.sender].startingTime ;\n        uint _lockUpPeriod = PoolInfo[pIdx].lockUpPeriod;\n        require (block.timestamp >= _startingTime + _lockUpPeriod, \"can't claim rewards now, wait until your lock-up is finished\") ; \n        if (reward > 0){\n            UserInfo[pIdx][msg.sender].rewards = 0 ; \n            stakingToken.transfer(msg.sender, reward) ; \n            totalRewarded += reward ; \n        }\n    }\n\n            /// ::: SPECIAL ADMIN FUNCTION ::: ///\n    \n    /// This function is to be used ONLY for emergency purpose\n    /// By executing it, the contract owner (the team) is able to withdraw \n    /// all staking rewards from this contract\n\n    function emergencyWithdrawal () external onlyOwner {\n        /// that way we don't withdraw users from the contract, only the remaining rewards\n        uint remaining = totalRewards - totalRewarded ;\n        stakingToken.transfer(msg.sender, remaining) ; \n    }\n}",
  "sourcePath": "/Users/youv/Documents/ALYRA-projects/TicketTokenNewFront/tickets-tocken-v2/truffle/contracts/SingleStaking.sol",
  "compiler": {
    "name": "solc",
    "version": "0.8.17+commit.8df45f5f.Emscripten.clang"
  },
  "schemaVersion": "3.4.11",
  "updatedAt": "2022-12-12T03:31:51.803Z",
  "networkType": "ethereum",
  "devdoc": {
    "kind": "dev",
    "methods": {
      "owner()": {
        "details": "Returns the address of the current owner."
      },
      "renounceOwnership()": {
        "details": "Leaves the contract without owner. It will not be possible to call `onlyOwner` functions anymore. Can only be called by the current owner. NOTE: Renouncing ownership will leave the contract without an owner, thereby removing any functionality that is only available to the owner."
      },
      "transferOwnership(address)": {
        "details": "Transfers ownership of the contract to a new account (`newOwner`). Can only be called by the current owner."
      }
    },
    "version": 1
  },
  "userdoc": {
    "kind": "user",
    "methods": {
      "PoolInfo(uint256)": {
        "notice": "PoolInfo contains the different pool infos of each pool"
      },
      "UserInfo(uint256,address)": {
        "notice": "We keep users infos for each pool. Uint : pool idx"
      },
      "emergencyWithdrawal()": {
        "notice": "This function is to be used ONLY for emergency purpose By executing it, the contract owner (the team) is able to withdraw  all staking rewards from this contract"
      },
      "getPoolInfos(uint256)": {
        "notice": "::: GETTERS ::: ///"
      },
      "setPool(uint256,uint256,uint256)": {
        "notice": "this is a function for the owner to create the staking pools the pools must be initiated in the following order :  1) no lock-up 2) 1 month lock-up 3) 3 months lock-up 4) 6 months lock-up 5) LP staking pool"
      },
      "setTotalRewards()": {
        "notice": "TO BE RAN BEFORE ANY OTHER FUNCTION AND BEFORE ANY OTHER USER DEPOSITED FUNDS :  Issue : if a user deposits funds there before us, it's not working"
      },
      "updatePoolReward(uint256,uint256)": {
        "notice": "::: POOLS UPDATES ::: ///"
      }
    },
    "notice": "The staking contract below will cover 4 lockup possibilities.  they can be defined after contract deployment Pool 0 has by definition no token lockup period",
    "version": 1
  }
}