{
  "contractName": "Ticket",
  "abi": [
    {
      "inputs": [
        {
          "internalType": "string",
          "name": "_name",
          "type": "string"
        },
        {
          "internalType": "string",
          "name": "_symbol",
          "type": "string"
        },
        {
          "internalType": "uint256",
          "name": "_price",
          "type": "uint256"
        },
        {
          "internalType": "uint256",
          "name": "_maxTicketsSupply",
          "type": "uint256"
        },
        {
          "internalType": "string",
          "name": "_uri",
          "type": "string"
        },
        {
          "internalType": "address",
          "name": "_eventOwner",
          "type": "address"
        }
      ],
      "stateMutability": "nonpayable",
      "type": "constructor"
    },
    {
      "anonymous": false,
      "inputs": [
        {
          "indexed": true,
          "internalType": "address",
          "name": "owner",
          "type": "address"
        },
        {
          "indexed": true,
          "internalType": "address",
          "name": "approved",
          "type": "address"
        },
        {
          "indexed": true,
          "internalType": "uint256",
          "name": "tokenId",
          "type": "uint256"
        }
      ],
      "name": "Approval",
      "type": "event"
    },
    {
      "anonymous": false,
      "inputs": [
        {
          "indexed": true,
          "internalType": "address",
          "name": "owner",
          "type": "address"
        },
        {
          "indexed": true,
          "internalType": "address",
          "name": "operator",
          "type": "address"
        },
        {
          "indexed": false,
          "internalType": "bool",
          "name": "approved",
          "type": "bool"
        }
      ],
      "name": "ApprovalForAll",
      "type": "event"
    },
    {
      "anonymous": false,
      "inputs": [
        {
          "indexed": false,
          "internalType": "uint256",
          "name": "id",
          "type": "uint256"
        },
        {
          "indexed": false,
          "internalType": "address",
          "name": "owner",
          "type": "address"
        }
      ],
      "name": "TicketMinted",
      "type": "event"
    },
    {
      "anonymous": false,
      "inputs": [
        {
          "indexed": false,
          "internalType": "uint256",
          "name": "id",
          "type": "uint256"
        },
        {
          "indexed": false,
          "internalType": "address",
          "name": "owner",
          "type": "address"
        },
        {
          "indexed": false,
          "internalType": "uint256",
          "name": "price",
          "type": "uint256"
        }
      ],
      "name": "TicketSold",
      "type": "event"
    },
    {
      "anonymous": false,
      "inputs": [
        {
          "indexed": true,
          "internalType": "address",
          "name": "from",
          "type": "address"
        },
        {
          "indexed": true,
          "internalType": "address",
          "name": "to",
          "type": "address"
        },
        {
          "indexed": true,
          "internalType": "uint256",
          "name": "tokenId",
          "type": "uint256"
        }
      ],
      "name": "Transfer",
      "type": "event"
    },
    {
      "inputs": [],
      "name": "_ticketIds",
      "outputs": [
        {
          "internalType": "uint256",
          "name": "_value",
          "type": "uint256"
        }
      ],
      "stateMutability": "view",
      "type": "function"
    },
    {
      "inputs": [
        {
          "internalType": "address",
          "name": "to",
          "type": "address"
        },
        {
          "internalType": "uint256",
          "name": "tokenId",
          "type": "uint256"
        }
      ],
      "name": "approve",
      "outputs": [],
      "stateMutability": "nonpayable",
      "type": "function"
    },
    {
      "inputs": [
        {
          "internalType": "address",
          "name": "owner",
          "type": "address"
        }
      ],
      "name": "balanceOf",
      "outputs": [
        {
          "internalType": "uint256",
          "name": "",
          "type": "uint256"
        }
      ],
      "stateMutability": "view",
      "type": "function"
    },
    {
      "inputs": [],
      "name": "eventOwner",
      "outputs": [
        {
          "internalType": "address",
          "name": "",
          "type": "address"
        }
      ],
      "stateMutability": "view",
      "type": "function"
    },
    {
      "inputs": [
        {
          "internalType": "uint256",
          "name": "tokenId",
          "type": "uint256"
        }
      ],
      "name": "getApproved",
      "outputs": [
        {
          "internalType": "address",
          "name": "",
          "type": "address"
        }
      ],
      "stateMutability": "view",
      "type": "function"
    },
    {
      "inputs": [
        {
          "internalType": "address",
          "name": "owner",
          "type": "address"
        },
        {
          "internalType": "address",
          "name": "operator",
          "type": "address"
        }
      ],
      "name": "isApprovedForAll",
      "outputs": [
        {
          "internalType": "bool",
          "name": "",
          "type": "bool"
        }
      ],
      "stateMutability": "view",
      "type": "function"
    },
    {
      "inputs": [],
      "name": "maxTicketsSupply",
      "outputs": [
        {
          "internalType": "uint256",
          "name": "",
          "type": "uint256"
        }
      ],
      "stateMutability": "view",
      "type": "function"
    },
    {
      "inputs": [],
      "name": "name",
      "outputs": [
        {
          "internalType": "string",
          "name": "",
          "type": "string"
        }
      ],
      "stateMutability": "view",
      "type": "function"
    },
    {
      "inputs": [
        {
          "internalType": "uint256",
          "name": "tokenId",
          "type": "uint256"
        }
      ],
      "name": "ownerOf",
      "outputs": [
        {
          "internalType": "address",
          "name": "",
          "type": "address"
        }
      ],
      "stateMutability": "view",
      "type": "function"
    },
    {
      "inputs": [],
      "name": "price",
      "outputs": [
        {
          "internalType": "uint256",
          "name": "",
          "type": "uint256"
        }
      ],
      "stateMutability": "view",
      "type": "function"
    },
    {
      "inputs": [
        {
          "internalType": "address",
          "name": "from",
          "type": "address"
        },
        {
          "internalType": "address",
          "name": "to",
          "type": "address"
        },
        {
          "internalType": "uint256",
          "name": "tokenId",
          "type": "uint256"
        }
      ],
      "name": "safeTransferFrom",
      "outputs": [],
      "stateMutability": "nonpayable",
      "type": "function"
    },
    {
      "inputs": [
        {
          "internalType": "address",
          "name": "from",
          "type": "address"
        },
        {
          "internalType": "address",
          "name": "to",
          "type": "address"
        },
        {
          "internalType": "uint256",
          "name": "tokenId",
          "type": "uint256"
        },
        {
          "internalType": "bytes",
          "name": "data",
          "type": "bytes"
        }
      ],
      "name": "safeTransferFrom",
      "outputs": [],
      "stateMutability": "nonpayable",
      "type": "function"
    },
    {
      "inputs": [
        {
          "internalType": "address",
          "name": "operator",
          "type": "address"
        },
        {
          "internalType": "bool",
          "name": "approved",
          "type": "bool"
        }
      ],
      "name": "setApprovalForAll",
      "outputs": [],
      "stateMutability": "nonpayable",
      "type": "function"
    },
    {
      "inputs": [
        {
          "internalType": "bytes4",
          "name": "interfaceId",
          "type": "bytes4"
        }
      ],
      "name": "supportsInterface",
      "outputs": [
        {
          "internalType": "bool",
          "name": "",
          "type": "bool"
        }
      ],
      "stateMutability": "view",
      "type": "function"
    },
    {
      "inputs": [],
      "name": "symbol",
      "outputs": [
        {
          "internalType": "string",
          "name": "",
          "type": "string"
        }
      ],
      "stateMutability": "view",
      "type": "function"
    },
    {
      "inputs": [
        {
          "internalType": "uint256",
          "name": "tokenId",
          "type": "uint256"
        }
      ],
      "name": "tokenURI",
      "outputs": [
        {
          "internalType": "string",
          "name": "",
          "type": "string"
        }
      ],
      "stateMutability": "view",
      "type": "function"
    },
    {
      "inputs": [
        {
          "internalType": "address",
          "name": "from",
          "type": "address"
        },
        {
          "internalType": "address",
          "name": "to",
          "type": "address"
        },
        {
          "internalType": "uint256",
          "name": "tokenId",
          "type": "uint256"
        }
      ],
      "name": "transferFrom",
      "outputs": [],
      "stateMutability": "nonpayable",
      "type": "function"
    },
    {
      "inputs": [],
      "name": "uri",
      "outputs": [
        {
          "internalType": "string",
          "name": "",
          "type": "string"
        }
      ],
      "stateMutability": "view",
      "type": "function"
    },
    {
      "inputs": [],
      "name": "mintTicket",
      "outputs": [],
      "stateMutability": "payable",
      "type": "function"
    }
  ],
  "bytecode": "0x60806040523480156200001157600080fd5b5060405162003352380380620033528339818101604052810190620000379190620002ff565b858581600090816200004a919062000639565b5080600190816200005c919062000639565b505050836007819055508260088190555081600990816200007e919062000639565b5080600a60006101000a81548173ffffffffffffffffffffffffffffffffffffffff021916908373ffffffffffffffffffffffffffffffffffffffff16021790555050505050505062000720565b6000604051905090565b600080fd5b600080fd5b600080fd5b600080fd5b6000601f19601f8301169050919050565b7f4e487b7100000000000000000000000000000000000000000000000000000000600052604160045260246000fd5b6200013582620000ea565b810181811067ffffffffffffffff82111715620001575762000156620000fb565b5b80604052505050565b60006200016c620000cc565b90506200017a82826200012a565b919050565b600067ffffffffffffffff8211156200019d576200019c620000fb565b5b620001a882620000ea565b9050602081019050919050565b60005b83811015620001d5578082015181840152602081019050620001b8565b60008484015250505050565b6000620001f8620001f2846200017f565b62000160565b905082815260208101848484011115620002175762000216620000e5565b5b62000224848285620001b5565b509392505050565b600082601f830112620002445762000243620000e0565b5b815162000256848260208601620001e1565b91505092915050565b6000819050919050565b62000274816200025f565b81146200028057600080fd5b50565b600081519050620002948162000269565b92915050565b600073ffffffffffffffffffffffffffffffffffffffff82169050919050565b6000620002c7826200029a565b9050919050565b620002d981620002ba565b8114620002e557600080fd5b50565b600081519050620002f981620002ce565b92915050565b60008060008060008060c087890312156200031f576200031e620000d6565b5b600087015167ffffffffffffffff81111562000340576200033f620000db565b5b6200034e89828a016200022c565b965050602087015167ffffffffffffffff811115620003725762000371620000db565b5b6200038089828a016200022c565b95505060406200039389828a0162000283565b9450506060620003a689828a0162000283565b935050608087015167ffffffffffffffff811115620003ca57620003c9620000db565b5b620003d889828a016200022c565b92505060a0620003eb89828a01620002e8565b9150509295509295509295565b600081519050919050565b7f4e487b7100000000000000000000000000000000000000000000000000000000600052602260045260246000fd5b600060028204905060018216806200044b57607f821691505b60208210810362000461576200046062000403565b5b50919050565b60008190508160005260206000209050919050565b60006020601f8301049050919050565b600082821b905092915050565b600060088302620004cb7fffffffffffffffffffffffffffffffffffffffffffffffffffffffffffffffff826200048c565b620004d786836200048c565b95508019841693508086168417925050509392505050565b6000819050919050565b60006200051a620005146200050e846200025f565b620004ef565b6200025f565b9050919050565b6000819050919050565b6200053683620004f9565b6200054e620005458262000521565b84845462000499565b825550505050565b600090565b6200056562000556565b620005728184846200052b565b505050565b5b818110156200059a576200058e6000826200055b565b60018101905062000578565b5050565b601f821115620005e957620005b38162000467565b620005be846200047c565b81016020851015620005ce578190505b620005e6620005dd856200047c565b83018262000577565b50505b505050565b600082821c905092915050565b60006200060e60001984600802620005ee565b1980831691505092915050565b6000620006298383620005fb565b9150826002028217905092915050565b6200064482620003f8565b67ffffffffffffffff81111562000660576200065f620000fb565b5b6200066c825462000432565b620006798282856200059e565b600060209050601f831160018114620006b157600084156200069c578287015190505b620006a885826200061b565b86555062000718565b601f198416620006c18662000467565b60005b82811015620006eb57848901518255600182019150602085019450602081019050620006c4565b868310156200070b578489015162000707601f891682620005fb565b8355505b6001600288020188555050505b505050505050565b612c2280620007306000396000f3fe6080604052600436106101145760003560e01c8063573c80fa116100a0578063a22cb46511610064578063a22cb46514610394578063b88d4fde146103bd578063c87b56dd146103e6578063e985e9c514610423578063eac989f81461046057610114565b8063573c80fa146102ba5780636352211e146102c457806370a082311461030157806395d89b411461033e578063a035b1fe1461036957610114565b8063095ea7b3116100e7578063095ea7b3146101e9578063202141341461021257806323b872dd1461023d57806342842e0e14610266578063548f8b511461028f57610114565b806301ffc9a71461011957806306fdde0314610156578063081812fc1461018157806308648d87146101be575b600080fd5b34801561012557600080fd5b50610140600480360381019061013b9190611cae565b61048b565b60405161014d9190611cf6565b60405180910390f35b34801561016257600080fd5b5061016b61056d565b6040516101789190611da1565b60405180910390f35b34801561018d57600080fd5b506101a860048036038101906101a39190611df9565b6105ff565b6040516101b59190611e67565b60405180910390f35b3480156101ca57600080fd5b506101d3610645565b6040516101e09190611e91565b60405180910390f35b3480156101f557600080fd5b50610210600480360381019061020b9190611ed8565b61064b565b005b34801561021e57600080fd5b50610227610762565b6040516102349190611e67565b60405180910390f35b34801561024957600080fd5b50610264600480360381019061025f9190611f18565b610788565b005b34801561027257600080fd5b5061028d60048036038101906102889190611f18565b6107e8565b005b34801561029b57600080fd5b506102a4610808565b6040516102b19190611e91565b60405180910390f35b6102c2610814565b005b3480156102d057600080fd5b506102eb60048036038101906102e69190611df9565b6109d2565b6040516102f89190611e67565b60405180910390f35b34801561030d57600080fd5b5061032860048036038101906103239190611f6b565b610a58565b6040516103359190611e91565b60405180910390f35b34801561034a57600080fd5b50610353610b0f565b6040516103609190611da1565b60405180910390f35b34801561037557600080fd5b5061037e610ba1565b60405161038b9190611e91565b60405180910390f35b3480156103a057600080fd5b506103bb60048036038101906103b69190611fc4565b610ba7565b005b3480156103c957600080fd5b506103e460048036038101906103df9190612139565b610bbd565b005b3480156103f257600080fd5b5061040d60048036038101906104089190611df9565b610c1f565b60405161041a9190611da1565b60405180910390f35b34801561042f57600080fd5b5061044a600480360381019061044591906121bc565b610c87565b6040516104579190611cf6565b60405180910390f35b34801561046c57600080fd5b50610475610d1b565b6040516104829190611da1565b60405180910390f35b60007f80ac58cd000000000000000000000000000000000000000000000000000000007bffffffffffffffffffffffffffffffffffffffffffffffffffffffff1916827bffffffffffffffffffffffffffffffffffffffffffffffffffffffff1916148061055657507f5b5e139f000000000000000000000000000000000000000000000000000000007bffffffffffffffffffffffffffffffffffffffffffffffffffffffff1916827bffffffffffffffffffffffffffffffffffffffffffffffffffffffff1916145b80610566575061056582610da9565b5b9050919050565b60606000805461057c9061222b565b80601f01602080910402602001604051908101604052809291908181526020018280546105a89061222b565b80156105f55780601f106105ca576101008083540402835291602001916105f5565b820191906000526020600020905b8154815290600101906020018083116105d857829003601f168201915b5050505050905090565b600061060a82610e13565b6004600083815260200190815260200160002060009054906101000a900473ffffffffffffffffffffffffffffffffffffffff169050919050565b60085481565b6000610656826109d2565b90508073ffffffffffffffffffffffffffffffffffffffff168373ffffffffffffffffffffffffffffffffffffffff16036106c6576040517f08c379a00000000000000000000000000000000000000000000000000000000081526004016106bd906122ce565b60405180910390fd5b8073ffffffffffffffffffffffffffffffffffffffff166106e5610e5e565b73ffffffffffffffffffffffffffffffffffffffff16148061071457506107138161070e610e5e565b610c87565b5b610753576040517f08c379a000000000000000000000000000000000000000000000000000000000815260040161074a90612360565b60405180910390fd5b61075d8383610e66565b505050565b600a60009054906101000a900473ffffffffffffffffffffffffffffffffffffffff1681565b610799610793610e5e565b82610f1f565b6107d8576040517f08c379a00000000000000000000000000000000000000000000000000000000081526004016107cf906123f2565b60405180910390fd5b6107e3838383610fb4565b505050565b61080383838360405180602001604052806000815250610bbd565b505050565b60068060000154905081565b60085461082160066112ad565b10610861576040517f08c379a00000000000000000000000000000000000000000000000000000000081526004016108589061245e565b60405180910390fd5b60075434146108a5576040517f08c379a000000000000000000000000000000000000000000000000000000000815260040161089c906124f0565b60405180910390fd5b6000600a60009054906101000a900473ffffffffffffffffffffffffffffffffffffffff1673ffffffffffffffffffffffffffffffffffffffff16346040516108ed90612541565b60006040518083038185875af1925050503d806000811461092a576040519150601f19603f3d011682016040523d82523d6000602084013e61092f565b606091505b5050905080610973576040517f08c379a000000000000000000000000000000000000000000000000000000000815260040161096a906125a2565b60405180910390fd5b600061097f60066112ad565b905061098b33826112bb565b7f21c3ad7994b754affe27828ad7ab1f306d7a99ab4dbc743ed56d2b2f82620b4481336040516109bc9291906125c2565b60405180910390a16109ce60066114d8565b5050565b6000806109de836114ee565b9050600073ffffffffffffffffffffffffffffffffffffffff168173ffffffffffffffffffffffffffffffffffffffff1603610a4f576040517f08c379a0000000000000000000000000000000000000000000000000000000008152600401610a4690612637565b60405180910390fd5b80915050919050565b60008073ffffffffffffffffffffffffffffffffffffffff168273ffffffffffffffffffffffffffffffffffffffff1603610ac8576040517f08c379a0000000000000000000000000000000000000000000000000000000008152600401610abf906126c9565b60405180910390fd5b600360008373ffffffffffffffffffffffffffffffffffffffff1673ffffffffffffffffffffffffffffffffffffffff168152602001908152602001600020549050919050565b606060018054610b1e9061222b565b80601f0160208091040260200160405190810160405280929190818152602001828054610b4a9061222b565b8015610b975780601f10610b6c57610100808354040283529160200191610b97565b820191906000526020600020905b815481529060010190602001808311610b7a57829003601f168201915b5050505050905090565b60075481565b610bb9610bb2610e5e565b838361152b565b5050565b610bce610bc8610e5e565b83610f1f565b610c0d576040517f08c379a0000000000000000000000000000000000000000000000000000000008152600401610c04906123f2565b60405180910390fd5b610c1984848484611697565b50505050565b6060610c2a82610e13565b6000610c346116f3565b90506000815111610c545760405180602001604052806000815250610c7f565b80610c5e8461170a565b604051602001610c6f929190612725565b6040516020818303038152906040525b915050919050565b6000600560008473ffffffffffffffffffffffffffffffffffffffff1673ffffffffffffffffffffffffffffffffffffffff16815260200190815260200160002060008373ffffffffffffffffffffffffffffffffffffffff1673ffffffffffffffffffffffffffffffffffffffff16815260200190815260200160002060009054906101000a900460ff16905092915050565b60098054610d289061222b565b80601f0160208091040260200160405190810160405280929190818152602001828054610d549061222b565b8015610da15780601f10610d7657610100808354040283529160200191610da1565b820191906000526020600020905b815481529060010190602001808311610d8457829003601f168201915b505050505081565b60007f01ffc9a7000000000000000000000000000000000000000000000000000000007bffffffffffffffffffffffffffffffffffffffffffffffffffffffff1916827bffffffffffffffffffffffffffffffffffffffffffffffffffffffff1916149050919050565b610e1c816117d8565b610e5b576040517f08c379a0000000000000000000000000000000000000000000000000000000008152600401610e5290612637565b60405180910390fd5b50565b600033905090565b816004600083815260200190815260200160002060006101000a81548173ffffffffffffffffffffffffffffffffffffffff021916908373ffffffffffffffffffffffffffffffffffffffff160217905550808273ffffffffffffffffffffffffffffffffffffffff16610ed9836109d2565b73ffffffffffffffffffffffffffffffffffffffff167f8c5be1e5ebec7d5bd14f71427d1e84f3dd0314c0f7b2291e5b200ac8c7c3b92560405160405180910390a45050565b600080610f2b836109d2565b90508073ffffffffffffffffffffffffffffffffffffffff168473ffffffffffffffffffffffffffffffffffffffff161480610f6d5750610f6c8185610c87565b5b80610fab57508373ffffffffffffffffffffffffffffffffffffffff16610f93846105ff565b73ffffffffffffffffffffffffffffffffffffffff16145b91505092915050565b8273ffffffffffffffffffffffffffffffffffffffff16610fd4826109d2565b73ffffffffffffffffffffffffffffffffffffffff161461102a576040517f08c379a0000000000000000000000000000000000000000000000000000000008152600401611021906127bb565b60405180910390fd5b600073ffffffffffffffffffffffffffffffffffffffff168273ffffffffffffffffffffffffffffffffffffffff1603611099576040517f08c379a00000000000000000000000000000000000000000000000000000000081526004016110909061284d565b60405180910390fd5b6110a68383836001611819565b8273ffffffffffffffffffffffffffffffffffffffff166110c6826109d2565b73ffffffffffffffffffffffffffffffffffffffff161461111c576040517f08c379a0000000000000000000000000000000000000000000000000000000008152600401611113906127bb565b60405180910390fd5b6004600082815260200190815260200160002060006101000a81549073ffffffffffffffffffffffffffffffffffffffff02191690556001600360008573ffffffffffffffffffffffffffffffffffffffff1673ffffffffffffffffffffffffffffffffffffffff168152602001908152602001600020600082825403925050819055506001600360008473ffffffffffffffffffffffffffffffffffffffff1673ffffffffffffffffffffffffffffffffffffffff16815260200190815260200160002060008282540192505081905550816002600083815260200190815260200160002060006101000a81548173ffffffffffffffffffffffffffffffffffffffff021916908373ffffffffffffffffffffffffffffffffffffffff160217905550808273ffffffffffffffffffffffffffffffffffffffff168473ffffffffffffffffffffffffffffffffffffffff167fddf252ad1be2c89b69c2b068fc378daa952ba7f163c4a11628f55a4df523b3ef60405160405180910390a46112a8838383600161193f565b505050565b600081600001549050919050565b600073ffffffffffffffffffffffffffffffffffffffff168273ffffffffffffffffffffffffffffffffffffffff160361132a576040517f08c379a0000000000000000000000000000000000000000000000000000000008152600401611321906128b9565b60405180910390fd5b611333816117d8565b15611373576040517f08c379a000000000000000000000000000000000000000000000000000000000815260040161136a90612925565b60405180910390fd5b611381600083836001611819565b61138a816117d8565b156113ca576040517f08c379a00000000000000000000000000000000000000000000000000000000081526004016113c190612925565b60405180910390fd5b6001600360008473ffffffffffffffffffffffffffffffffffffffff1673ffffffffffffffffffffffffffffffffffffffff16815260200190815260200160002060008282540192505081905550816002600083815260200190815260200160002060006101000a81548173ffffffffffffffffffffffffffffffffffffffff021916908373ffffffffffffffffffffffffffffffffffffffff160217905550808273ffffffffffffffffffffffffffffffffffffffff16600073ffffffffffffffffffffffffffffffffffffffff167fddf252ad1be2c89b69c2b068fc378daa952ba7f163c4a11628f55a4df523b3ef60405160405180910390a46114d460008383600161193f565b5050565b6001816000016000828254019250508190555050565b60006002600083815260200190815260200160002060009054906101000a900473ffffffffffffffffffffffffffffffffffffffff169050919050565b8173ffffffffffffffffffffffffffffffffffffffff168373ffffffffffffffffffffffffffffffffffffffff1603611599576040517f08c379a000000000000000000000000000000000000000000000000000000000815260040161159090612991565b60405180910390fd5b80600560008573ffffffffffffffffffffffffffffffffffffffff1673ffffffffffffffffffffffffffffffffffffffff16815260200190815260200160002060008473ffffffffffffffffffffffffffffffffffffffff1673ffffffffffffffffffffffffffffffffffffffff16815260200190815260200160002060006101000a81548160ff0219169083151502179055508173ffffffffffffffffffffffffffffffffffffffff168373ffffffffffffffffffffffffffffffffffffffff167f17307eab39ab6107e8899845ad3d59bd9653f200f220920489ca2b5937696c318360405161168a9190611cf6565b60405180910390a3505050565b6116a2848484610fb4565b6116ae84848484611945565b6116ed576040517f08c379a00000000000000000000000000000000000000000000000000000000081526004016116e490612a23565b60405180910390fd5b50505050565b606060405180602001604052806000815250905090565b60606000600161171984611acc565b01905060008167ffffffffffffffff8111156117385761173761200e565b5b6040519080825280601f01601f19166020018201604052801561176a5781602001600182028036833780820191505090505b509050600082602001820190505b6001156117cd578080600190039150507f3031323334353637383961626364656600000000000000000000000000000000600a86061a8153600a85816117c1576117c0612a43565b5b04945060008503611778575b819350505050919050565b60008073ffffffffffffffffffffffffffffffffffffffff166117fa836114ee565b73ffffffffffffffffffffffffffffffffffffffff1614159050919050565b600181111561193957600073ffffffffffffffffffffffffffffffffffffffff168473ffffffffffffffffffffffffffffffffffffffff16146118ad5780600360008673ffffffffffffffffffffffffffffffffffffffff1673ffffffffffffffffffffffffffffffffffffffff16815260200190815260200160002060008282546118a59190612aa1565b925050819055505b600073ffffffffffffffffffffffffffffffffffffffff168373ffffffffffffffffffffffffffffffffffffffff16146119385780600360008573ffffffffffffffffffffffffffffffffffffffff1673ffffffffffffffffffffffffffffffffffffffff16815260200190815260200160002060008282546119309190612ad5565b925050819055505b5b50505050565b50505050565b60006119668473ffffffffffffffffffffffffffffffffffffffff16611c1f565b15611abf578373ffffffffffffffffffffffffffffffffffffffff1663150b7a0261198f610e5e565b8786866040518563ffffffff1660e01b81526004016119b19493929190612b5e565b6020604051808303816000875af19250505080156119ed57506040513d601f19601f820116820180604052508101906119ea9190612bbf565b60015b611a6f573d8060008114611a1d576040519150601f19603f3d011682016040523d82523d6000602084013e611a22565b606091505b506000815103611a67576040517f08c379a0000000000000000000000000000000000000000000000000000000008152600401611a5e90612a23565b60405180910390fd5b805181602001fd5b63150b7a0260e01b7bffffffffffffffffffffffffffffffffffffffffffffffffffffffff1916817bffffffffffffffffffffffffffffffffffffffffffffffffffffffff191614915050611ac4565b600190505b949350505050565b600080600090507a184f03e93ff9f4daa797ed6e38ed64bf6a1f0100000000000000008310611b2a577a184f03e93ff9f4daa797ed6e38ed64bf6a1f0100000000000000008381611b2057611b1f612a43565b5b0492506040810190505b6d04ee2d6d415b85acef81000000008310611b67576d04ee2d6d415b85acef81000000008381611b5d57611b5c612a43565b5b0492506020810190505b662386f26fc100008310611b9657662386f26fc100008381611b8c57611b8b612a43565b5b0492506010810190505b6305f5e1008310611bbf576305f5e1008381611bb557611bb4612a43565b5b0492506008810190505b6127108310611be4576127108381611bda57611bd9612a43565b5b0492506004810190505b60648310611c075760648381611bfd57611bfc612a43565b5b0492506002810190505b600a8310611c16576001810190505b80915050919050565b6000808273ffffffffffffffffffffffffffffffffffffffff163b119050919050565b6000604051905090565b600080fd5b600080fd5b60007fffffffff0000000000000000000000000000000000000000000000000000000082169050919050565b611c8b81611c56565b8114611c9657600080fd5b50565b600081359050611ca881611c82565b92915050565b600060208284031215611cc457611cc3611c4c565b5b6000611cd284828501611c99565b91505092915050565b60008115159050919050565b611cf081611cdb565b82525050565b6000602082019050611d0b6000830184611ce7565b92915050565b600081519050919050565b600082825260208201905092915050565b60005b83811015611d4b578082015181840152602081019050611d30565b60008484015250505050565b6000601f19601f8301169050919050565b6000611d7382611d11565b611d7d8185611d1c565b9350611d8d818560208601611d2d565b611d9681611d57565b840191505092915050565b60006020820190508181036000830152611dbb8184611d68565b905092915050565b6000819050919050565b611dd681611dc3565b8114611de157600080fd5b50565b600081359050611df381611dcd565b92915050565b600060208284031215611e0f57611e0e611c4c565b5b6000611e1d84828501611de4565b91505092915050565b600073ffffffffffffffffffffffffffffffffffffffff82169050919050565b6000611e5182611e26565b9050919050565b611e6181611e46565b82525050565b6000602082019050611e7c6000830184611e58565b92915050565b611e8b81611dc3565b82525050565b6000602082019050611ea66000830184611e82565b92915050565b611eb581611e46565b8114611ec057600080fd5b50565b600081359050611ed281611eac565b92915050565b60008060408385031215611eef57611eee611c4c565b5b6000611efd85828601611ec3565b9250506020611f0e85828601611de4565b9150509250929050565b600080600060608486031215611f3157611f30611c4c565b5b6000611f3f86828701611ec3565b9350506020611f5086828701611ec3565b9250506040611f6186828701611de4565b9150509250925092565b600060208284031215611f8157611f80611c4c565b5b6000611f8f84828501611ec3565b91505092915050565b611fa181611cdb565b8114611fac57600080fd5b50565b600081359050611fbe81611f98565b92915050565b60008060408385031215611fdb57611fda611c4c565b5b6000611fe985828601611ec3565b9250506020611ffa85828601611faf565b9150509250929050565b600080fd5b600080fd5b7f4e487b7100000000000000000000000000000000000000000000000000000000600052604160045260246000fd5b61204682611d57565b810181811067ffffffffffffffff821117156120655761206461200e565b5b80604052505050565b6000612078611c42565b9050612084828261203d565b919050565b600067ffffffffffffffff8211156120a4576120a361200e565b5b6120ad82611d57565b9050602081019050919050565b82818337600083830152505050565b60006120dc6120d784612089565b61206e565b9050828152602081018484840111156120f8576120f7612009565b5b6121038482856120ba565b509392505050565b600082601f8301126121205761211f612004565b5b81356121308482602086016120c9565b91505092915050565b6000806000806080858703121561215357612152611c4c565b5b600061216187828801611ec3565b945050602061217287828801611ec3565b935050604061218387828801611de4565b925050606085013567ffffffffffffffff8111156121a4576121a3611c51565b5b6121b08782880161210b565b91505092959194509250565b600080604083850312156121d3576121d2611c4c565b5b60006121e185828601611ec3565b92505060206121f285828601611ec3565b9150509250929050565b7f4e487b7100000000000000000000000000000000000000000000000000000000600052602260045260246000fd5b6000600282049050600182168061224357607f821691505b602082108103612256576122556121fc565b5b50919050565b7f4552433732313a20617070726f76616c20746f2063757272656e74206f776e6560008201527f7200000000000000000000000000000000000000000000000000000000000000602082015250565b60006122b8602183611d1c565b91506122c38261225c565b604082019050919050565b600060208201905081810360008301526122e7816122ab565b9050919050565b7f4552433732313a20617070726f76652063616c6c6572206973206e6f7420746f60008201527f6b656e206f776e6572206f7220617070726f76656420666f7220616c6c000000602082015250565b600061234a603d83611d1c565b9150612355826122ee565b604082019050919050565b600060208201905081810360008301526123798161233d565b9050919050565b7f4552433732313a2063616c6c6572206973206e6f7420746f6b656e206f776e6560008201527f72206f7220617070726f76656400000000000000000000000000000000000000602082015250565b60006123dc602d83611d1c565b91506123e782612380565b604082019050919050565b6000602082019050818103600083015261240b816123cf565b9050919050565b7f4576656e7420736f6c64206f7574000000000000000000000000000000000000600082015250565b6000612448600e83611d1c565b915061245382612412565b602082019050919050565b600060208201905081810360008301526124778161243b565b9050919050565b7f596f75206d7573742073656e6420746865207469636b6574207072696365207660008201527f616c756500000000000000000000000000000000000000000000000000000000602082015250565b60006124da602483611d1c565b91506124e58261247e565b604082019050919050565b60006020820190508181036000830152612509816124cd565b9050919050565b600081905092915050565b50565b600061252b600083612510565b91506125368261251b565b600082019050919050565b600061254c8261251e565b9150819050919050565b7f5472616e73616374696f6e206661696c65640000000000000000000000000000600082015250565b600061258c601283611d1c565b915061259782612556565b602082019050919050565b600060208201905081810360008301526125bb8161257f565b9050919050565b60006040820190506125d76000830185611e82565b6125e46020830184611e58565b9392505050565b7f4552433732313a20696e76616c696420746f6b656e2049440000000000000000600082015250565b6000612621601883611d1c565b915061262c826125eb565b602082019050919050565b6000602082019050818103600083015261265081612614565b9050919050565b7f4552433732313a2061646472657373207a65726f206973206e6f74206120766160008201527f6c6964206f776e65720000000000000000000000000000000000000000000000602082015250565b60006126b3602983611d1c565b91506126be82612657565b604082019050919050565b600060208201905081810360008301526126e2816126a6565b9050919050565b600081905092915050565b60006126ff82611d11565b61270981856126e9565b9350612719818560208601611d2d565b80840191505092915050565b600061273182856126f4565b915061273d82846126f4565b91508190509392505050565b7f4552433732313a207472616e736665722066726f6d20696e636f72726563742060008201527f6f776e6572000000000000000000000000000000000000000000000000000000602082015250565b60006127a5602583611d1c565b91506127b082612749565b604082019050919050565b600060208201905081810360008301526127d481612798565b9050919050565b7f4552433732313a207472616e7366657220746f20746865207a65726f2061646460008201527f7265737300000000000000000000000000000000000000000000000000000000602082015250565b6000612837602483611d1c565b9150612842826127db565b604082019050919050565b600060208201905081810360008301526128668161282a565b9050919050565b7f4552433732313a206d696e7420746f20746865207a65726f2061646472657373600082015250565b60006128a3602083611d1c565b91506128ae8261286d565b602082019050919050565b600060208201905081810360008301526128d281612896565b9050919050565b7f4552433732313a20746f6b656e20616c7265616479206d696e74656400000000600082015250565b600061290f601c83611d1c565b915061291a826128d9565b602082019050919050565b6000602082019050818103600083015261293e81612902565b9050919050565b7f4552433732313a20617070726f766520746f2063616c6c657200000000000000600082015250565b600061297b601983611d1c565b915061298682612945565b602082019050919050565b600060208201905081810360008301526129aa8161296e565b9050919050565b7f4552433732313a207472616e7366657220746f206e6f6e20455243373231526560008201527f63656976657220696d706c656d656e7465720000000000000000000000000000602082015250565b6000612a0d603283611d1c565b9150612a18826129b1565b604082019050919050565b60006020820190508181036000830152612a3c81612a00565b9050919050565b7f4e487b7100000000000000000000000000000000000000000000000000000000600052601260045260246000fd5b7f4e487b7100000000000000000000000000000000000000000000000000000000600052601160045260246000fd5b6000612aac82611dc3565b9150612ab783611dc3565b9250828203905081811115612acf57612ace612a72565b5b92915050565b6000612ae082611dc3565b9150612aeb83611dc3565b9250828201905080821115612b0357612b02612a72565b5b92915050565b600081519050919050565b600082825260208201905092915050565b6000612b3082612b09565b612b3a8185612b14565b9350612b4a818560208601611d2d565b612b5381611d57565b840191505092915050565b6000608082019050612b736000830187611e58565b612b806020830186611e58565b612b8d6040830185611e82565b8181036060830152612b9f8184612b25565b905095945050505050565b600081519050612bb981611c82565b92915050565b600060208284031215612bd557612bd4611c4c565b5b6000612be384828501612baa565b9150509291505056fea264697066735822122001162f54a76bc657cc8ab693f48bf68ba0ebe6dfc79096276c304f8233912d6064736f6c63430008110033",
  "immutableReferences": {},
  "source": "// SPDX-License-Identifier: GPL-3.0-or-later\npragma solidity 0.8.17;\n\nimport \"../node_modules/@openzeppelin/contracts/token/ERC721/ERC721.sol\";\nimport \"../node_modules/@openzeppelin/contracts/utils/Counters.sol\";\n\n// Ticket contract\ncontract Ticket is ERC721 {\n    using Counters for Counters.Counter;\n    Counters.Counter public _ticketIds;\n\n    uint public price;\n    uint public maxTicketsSupply;\n    string public uri;\n    address public eventOwner;\n\n    // Event for when a ticket is created\n    event TicketMinted(uint id, address owner);\n\n    // Event for when a ticket is sold\n    event TicketSold(uint id, address owner, uint price);\n\n    constructor (\n        string memory _name,\n        string memory _symbol,\n        uint _price,\n        uint _maxTicketsSupply,\n        string memory _uri,\n        address _eventOwner\n    ) ERC721(_name, _symbol) {\n      price = _price;\n      maxTicketsSupply = _maxTicketsSupply;\n      uri = _uri;\n      eventOwner = _eventOwner;\n    }\n\n    // Function to create a new ticket\n    function mintTicket() external payable {\n        require(_ticketIds.current() < maxTicketsSupply, 'Event sold out');\n        require(msg.value == price, 'You must send the ticket price value');\n\n        (bool sent,) = payable(eventOwner).call{value: msg.value}(\"\");\n        require(sent, 'Transaction failed');\n\n        uint id = _ticketIds.current();\n        _mint(msg.sender, id);\n\n        // Emit event to indicate that the ticket has been created\n        emit TicketMinted(id, msg.sender);\n\n        _ticketIds.increment();\n    }\n\n}\n",
  "sourcePath": "/home/badisse/Perso/Alyra/tickets-tocken-v2/truffle/contracts/Ticket.sol",
  "compiler": {
    "name": "solc",
    "version": "0.8.17+commit.8df45f5f.Emscripten.clang"
  },
  "schemaVersion": "3.4.10",
  "updatedAt": "2022-12-09T02:56:04.001Z",
  "devdoc": {
    "kind": "dev",
    "methods": {
      "approve(address,uint256)": {
        "details": "See {IERC721-approve}."
      },
      "balanceOf(address)": {
        "details": "See {IERC721-balanceOf}."
      },
      "getApproved(uint256)": {
        "details": "See {IERC721-getApproved}."
      },
      "isApprovedForAll(address,address)": {
        "details": "See {IERC721-isApprovedForAll}."
      },
      "name()": {
        "details": "See {IERC721Metadata-name}."
      },
      "ownerOf(uint256)": {
        "details": "See {IERC721-ownerOf}."
      },
      "safeTransferFrom(address,address,uint256)": {
        "details": "See {IERC721-safeTransferFrom}."
      },
      "safeTransferFrom(address,address,uint256,bytes)": {
        "details": "See {IERC721-safeTransferFrom}."
      },
      "setApprovalForAll(address,bool)": {
        "details": "See {IERC721-setApprovalForAll}."
      },
      "supportsInterface(bytes4)": {
        "details": "See {IERC165-supportsInterface}."
      },
      "symbol()": {
        "details": "See {IERC721Metadata-symbol}."
      },
      "tokenURI(uint256)": {
        "details": "See {IERC721Metadata-tokenURI}."
      },
      "transferFrom(address,address,uint256)": {
        "details": "See {IERC721-transferFrom}."
      }
    },
    "version": 1
  },
  "userdoc": {
    "kind": "user",
    "methods": {},
    "version": 1
  }
}