{
  "contractName": "TicketV2",
  "abi": [
    {
      "inputs": [
        {
          "internalType": "address",
          "name": "_eventOwner",
          "type": "address"
        }
      ],
      "stateMutability": "nonpayable",
      "type": "constructor"
    },
    {
      "anonymous": false,
      "inputs": [
        {
          "indexed": true,
          "internalType": "address",
          "name": "account",
          "type": "address"
        },
        {
          "indexed": true,
          "internalType": "address",
          "name": "operator",
          "type": "address"
        },
        {
          "indexed": false,
          "internalType": "bool",
          "name": "approved",
          "type": "bool"
        }
      ],
      "name": "ApprovalForAll",
      "type": "event"
    },
    {
      "anonymous": false,
      "inputs": [
        {
          "indexed": true,
          "internalType": "address",
          "name": "previousOwner",
          "type": "address"
        },
        {
          "indexed": true,
          "internalType": "address",
          "name": "newOwner",
          "type": "address"
        }
      ],
      "name": "OwnershipTransferred",
      "type": "event"
    },
    {
      "anonymous": false,
      "inputs": [
        {
          "components": [
            {
              "internalType": "uint256",
              "name": "price",
              "type": "uint256"
            },
            {
              "internalType": "uint256",
              "name": "maxAmount",
              "type": "uint256"
            },
            {
              "internalType": "uint256",
              "name": "ticketsAvailables",
              "type": "uint256"
            },
            {
              "internalType": "string",
              "name": "name",
              "type": "string"
            },
            {
              "internalType": "string",
              "name": "image",
              "type": "string"
            }
          ],
          "indexed": false,
          "internalType": "struct TicketV2.TicketInfo[]",
          "name": "ticketsInfo",
          "type": "tuple[]"
        }
      ],
      "name": "TicketsCreated",
      "type": "event"
    },
    {
      "anonymous": false,
      "inputs": [
        {
          "indexed": false,
          "internalType": "address",
          "name": "minter",
          "type": "address"
        },
        {
          "indexed": false,
          "internalType": "uint256[]",
          "name": "ids",
          "type": "uint256[]"
        },
        {
          "indexed": false,
          "internalType": "uint256[]",
          "name": "amounts",
          "type": "uint256[]"
        }
      ],
      "name": "TicketsMinted",
      "type": "event"
    },
    {
      "anonymous": false,
      "inputs": [
        {
          "indexed": true,
          "internalType": "address",
          "name": "operator",
          "type": "address"
        },
        {
          "indexed": true,
          "internalType": "address",
          "name": "from",
          "type": "address"
        },
        {
          "indexed": true,
          "internalType": "address",
          "name": "to",
          "type": "address"
        },
        {
          "indexed": false,
          "internalType": "uint256[]",
          "name": "ids",
          "type": "uint256[]"
        },
        {
          "indexed": false,
          "internalType": "uint256[]",
          "name": "values",
          "type": "uint256[]"
        }
      ],
      "name": "TransferBatch",
      "type": "event"
    },
    {
      "anonymous": false,
      "inputs": [
        {
          "indexed": true,
          "internalType": "address",
          "name": "operator",
          "type": "address"
        },
        {
          "indexed": true,
          "internalType": "address",
          "name": "from",
          "type": "address"
        },
        {
          "indexed": true,
          "internalType": "address",
          "name": "to",
          "type": "address"
        },
        {
          "indexed": false,
          "internalType": "uint256",
          "name": "id",
          "type": "uint256"
        },
        {
          "indexed": false,
          "internalType": "uint256",
          "name": "value",
          "type": "uint256"
        }
      ],
      "name": "TransferSingle",
      "type": "event"
    },
    {
      "anonymous": false,
      "inputs": [
        {
          "indexed": false,
          "internalType": "string",
          "name": "value",
          "type": "string"
        },
        {
          "indexed": true,
          "internalType": "uint256",
          "name": "id",
          "type": "uint256"
        }
      ],
      "name": "URI",
      "type": "event"
    },
    {
      "inputs": [
        {
          "internalType": "address",
          "name": "account",
          "type": "address"
        },
        {
          "internalType": "uint256",
          "name": "id",
          "type": "uint256"
        }
      ],
      "name": "balanceOf",
      "outputs": [
        {
          "internalType": "uint256",
          "name": "",
          "type": "uint256"
        }
      ],
      "stateMutability": "view",
      "type": "function",
      "constant": true
    },
    {
      "inputs": [
        {
          "internalType": "address[]",
          "name": "accounts",
          "type": "address[]"
        },
        {
          "internalType": "uint256[]",
          "name": "ids",
          "type": "uint256[]"
        }
      ],
      "name": "balanceOfBatch",
      "outputs": [
        {
          "internalType": "uint256[]",
          "name": "",
          "type": "uint256[]"
        }
      ],
      "stateMutability": "view",
      "type": "function",
      "constant": true
    },
    {
      "inputs": [
        {
          "internalType": "address",
          "name": "account",
          "type": "address"
        },
        {
          "internalType": "address",
          "name": "operator",
          "type": "address"
        }
      ],
      "name": "isApprovedForAll",
      "outputs": [
        {
          "internalType": "bool",
          "name": "",
          "type": "bool"
        }
      ],
      "stateMutability": "view",
      "type": "function",
      "constant": true
    },
    {
      "inputs": [],
      "name": "owner",
      "outputs": [
        {
          "internalType": "address",
          "name": "",
          "type": "address"
        }
      ],
      "stateMutability": "view",
      "type": "function",
      "constant": true
    },
    {
      "inputs": [],
      "name": "renounceOwnership",
      "outputs": [],
      "stateMutability": "nonpayable",
      "type": "function"
    },
    {
      "inputs": [
        {
          "internalType": "address",
          "name": "from",
          "type": "address"
        },
        {
          "internalType": "address",
          "name": "to",
          "type": "address"
        },
        {
          "internalType": "uint256[]",
          "name": "ids",
          "type": "uint256[]"
        },
        {
          "internalType": "uint256[]",
          "name": "amounts",
          "type": "uint256[]"
        },
        {
          "internalType": "bytes",
          "name": "data",
          "type": "bytes"
        }
      ],
      "name": "safeBatchTransferFrom",
      "outputs": [],
      "stateMutability": "nonpayable",
      "type": "function"
    },
    {
      "inputs": [
        {
          "internalType": "address",
          "name": "from",
          "type": "address"
        },
        {
          "internalType": "address",
          "name": "to",
          "type": "address"
        },
        {
          "internalType": "uint256",
          "name": "id",
          "type": "uint256"
        },
        {
          "internalType": "uint256",
          "name": "amount",
          "type": "uint256"
        },
        {
          "internalType": "bytes",
          "name": "data",
          "type": "bytes"
        }
      ],
      "name": "safeTransferFrom",
      "outputs": [],
      "stateMutability": "nonpayable",
      "type": "function"
    },
    {
      "inputs": [
        {
          "internalType": "address",
          "name": "operator",
          "type": "address"
        },
        {
          "internalType": "bool",
          "name": "approved",
          "type": "bool"
        }
      ],
      "name": "setApprovalForAll",
      "outputs": [],
      "stateMutability": "nonpayable",
      "type": "function"
    },
    {
      "inputs": [
        {
          "internalType": "bytes4",
          "name": "interfaceId",
          "type": "bytes4"
        }
      ],
      "name": "supportsInterface",
      "outputs": [
        {
          "internalType": "bool",
          "name": "",
          "type": "bool"
        }
      ],
      "stateMutability": "view",
      "type": "function",
      "constant": true
    },
    {
      "inputs": [
        {
          "internalType": "uint256",
          "name": "",
          "type": "uint256"
        }
      ],
      "name": "tickets",
      "outputs": [
        {
          "internalType": "uint256",
          "name": "price",
          "type": "uint256"
        },
        {
          "internalType": "uint256",
          "name": "maxAmount",
          "type": "uint256"
        },
        {
          "internalType": "uint256",
          "name": "ticketsAvailables",
          "type": "uint256"
        },
        {
          "internalType": "string",
          "name": "name",
          "type": "string"
        },
        {
          "internalType": "string",
          "name": "image",
          "type": "string"
        }
      ],
      "stateMutability": "view",
      "type": "function",
      "constant": true
    },
    {
      "inputs": [
        {
          "internalType": "address",
          "name": "newOwner",
          "type": "address"
        }
      ],
      "name": "transferOwnership",
      "outputs": [],
      "stateMutability": "nonpayable",
      "type": "function"
    },
    {
      "inputs": [
        {
          "internalType": "uint256",
          "name": "",
          "type": "uint256"
        }
      ],
      "name": "uri",
      "outputs": [
        {
          "internalType": "string",
          "name": "",
          "type": "string"
        }
      ],
      "stateMutability": "view",
      "type": "function",
      "constant": true
    },
    {
      "inputs": [
        {
          "components": [
            {
              "internalType": "uint256",
              "name": "price",
              "type": "uint256"
            },
            {
              "internalType": "uint256",
              "name": "maxAmount",
              "type": "uint256"
            },
            {
              "internalType": "uint256",
              "name": "ticketsAvailables",
              "type": "uint256"
            },
            {
              "internalType": "string",
              "name": "name",
              "type": "string"
            },
            {
              "internalType": "string",
              "name": "image",
              "type": "string"
            }
          ],
          "internalType": "struct TicketV2.TicketInfo[]",
          "name": "_ticketsInfo",
          "type": "tuple[]"
        }
      ],
      "name": "createTickets",
      "outputs": [],
      "stateMutability": "nonpayable",
      "type": "function"
    },
    {
      "inputs": [
        {
          "internalType": "address",
          "name": "_minter",
          "type": "address"
        },
        {
          "internalType": "uint256",
          "name": "_msgValue",
          "type": "uint256"
        },
        {
          "internalType": "uint256[]",
          "name": "_ids",
          "type": "uint256[]"
        },
        {
          "internalType": "uint256[]",
          "name": "_amounts",
          "type": "uint256[]"
        }
      ],
      "name": "mintTickets",
      "outputs": [],
      "stateMutability": "payable",
      "type": "function",
      "payable": true
    }
  ],
  "bytecode": "0x60806040523480156200001157600080fd5b50604051620025c7380380620025c78339810160408190526200003491620000e4565b6040805160208101909152600081526200004e8162000080565b506200005a3362000092565b600480546001600160a01b0319166001600160a01b039290921691909117905562000287565b60026200008e8282620001bb565b5050565b600380546001600160a01b038381166001600160a01b0319831681179093556040519116919082907f8be0079c531659141344cd1fd0a4f28419497f9722a3daafe3b4186f6b6457e090600090a35050565b600060208284031215620000f757600080fd5b81516001600160a01b03811681146200010f57600080fd5b9392505050565b634e487b7160e01b600052604160045260246000fd5b600181811c908216806200014157607f821691505b6020821081036200016257634e487b7160e01b600052602260045260246000fd5b50919050565b601f821115620001b657600081815260208120601f850160051c81016020861015620001915750805b601f850160051c820191505b81811015620001b2578281556001016200019d565b5050505b505050565b81516001600160401b03811115620001d757620001d762000116565b620001ef81620001e884546200012c565b8462000168565b602080601f8311600181146200022757600084156200020e5750858301515b600019600386901b1c1916600185901b178555620001b2565b600085815260208120601f198616915b82811015620002585788860151825594840194600190910190840162000237565b5085821015620002775787850151600019600388901b60f8161c191681555b5050505050600190811b01905550565b61233080620002976000396000f3fe6080604052600436106100dc5760003560e01c806350b447121161007f578063a22cb46511610059578063a22cb46514610261578063e985e9c514610281578063f242432a146102ca578063f2fde38b146102ea57600080fd5b806350b44712146101f3578063715018a6146102245780638da5cb5b1461023957600080fd5b80632eb2c2d6116100bb5780632eb2c2d6146101715780634838a47c146101935780634d92838d146101b35780634e1273f4146101c657600080fd5b8062fdd58e146100e157806301ffc9a7146101145780630e89341c14610144575b600080fd5b3480156100ed57600080fd5b506101016100fc36600461150c565b61030a565b6040519081526020015b60405180910390f35b34801561012057600080fd5b5061013461012f36600461154c565b6103a3565b604051901515815260200161010b565b34801561015057600080fd5b5061016461015f366004611570565b6103f3565b60405161010b91906115cf565b34801561017d57600080fd5b5061019161018c36600461172b565b610487565b005b34801561019f57600080fd5b506101916101ae36600461181f565b6104d3565b6101916101c1366004611860565b6105d1565b3480156101d257600080fd5b506101e66101e13660046118e9565b61094f565b60405161010b91906119ee565b3480156101ff57600080fd5b5061021361020e366004611570565b610a78565b60405161010b959493929190611a01565b34801561023057600080fd5b50610191610bce565b34801561024557600080fd5b506003546040516001600160a01b03909116815260200161010b565b34801561026d57600080fd5b5061019161027c366004611a44565b610be2565b34801561028d57600080fd5b5061013461029c366004611a80565b6001600160a01b03918216600090815260016020908152604080832093909416825291909152205460ff1690565b3480156102d657600080fd5b506101916102e5366004611ab3565b610bf1565b3480156102f657600080fd5b50610191610305366004611b17565b610c36565b60006001600160a01b03831661037a5760405162461bcd60e51b815260206004820152602a60248201527f455243313135353a2061646472657373207a65726f206973206e6f742061207660448201526930b634b21037bbb732b960b11b60648201526084015b60405180910390fd5b506000818152602081815260408083206001600160a01b03861684529091529020545b92915050565b60006001600160e01b03198216636cdb3d1360e11b14806103d457506001600160e01b031982166303a24d0760e21b145b8061039d57506301ffc9a760e01b6001600160e01b031983161461039d565b60606002805461040290611b32565b80601f016020809104026020016040519081016040528092919081815260200182805461042e90611b32565b801561047b5780601f106104505761010080835404028352916020019161047b565b820191906000526020600020905b81548152906001019060200180831161045e57829003601f168201915b50505050509050919050565b6001600160a01b0385163314806104a357506104a3853361029c565b6104bf5760405162461bcd60e51b815260040161037190611b6c565b6104cc8585858585610caf565b5050505050565b6104db610e4b565b600554600a906104ec908390611bd0565b1061052b5760405162461bcd60e51b815260206004820152600f60248201526e546f206d756368207469636b65747360881b6044820152606401610371565b60005b8181101561059357600583838381811061054a5761054a611be3565b905060200281019061055c9190611bf9565b81546001810183556000928352602090922090916005020161057e8282611d69565b5050808061058b90611e70565b91505061052e565b507fea2bb9528c4f8c5431d1d26ddb1f5dc0c6865cb426c571152840e0cc6862cbf382826040516105c5929190611ef7565b60405180910390a15050565b6105d9610e4b565b6005548311156106215760405162461bcd60e51b8152602060048201526013602482015272546f206d756368207469636b6574732069647360681b6044820152606401610371565b60005b838110156107bc5760055485858381811061064157610641611be3565b905060200201351061068b5760405162461bcd60e51b8152602060048201526013602482015272151a58dad95d081a59081b9bdd08199bdd5b99606a1b6044820152606401610371565b600585858381811061069f5761069f611be3565b90506020020135815481106106b6576106b6611be3565b9060005260206000209060050201600201548383838181106106da576106da611be3565b90506020020135106107405760405162461bcd60e51b815260206004820152602960248201527f4e6f7420656e6f756768207469636b65747320617661696c61626c657320666f6044820152681c881d1a1a5cc81a5960ba1b6064820152608401610371565b82828281811061075257610752611be3565b90506020020135600586868481811061076d5761076d611be3565b905060200201358154811061078457610784611be3565b906000526020600020906005020160020160008282546107a49190611fc0565b909155508190506107b481611e70565b915050610624565b506000805b84811015610847578383828181106107db576107db611be3565b9050602002013560058787848181106107f6576107f6611be3565b905060200201358154811061080d5761080d611be3565b9060005260206000209060050201600001546108299190611fd3565b6108339083611bd0565b91508061083f81611e70565b9150506107c1565b5080861461088b5760405162461bcd60e51b8152602060048201526011602482015270496e737566696369656e742066756e647360781b6044820152606401610371565b6109078786868080602002602001604051908101604052809392919081815260200183836020028082843760009201919091525050604080516020808a02828101820190935289825290935089925088918291850190849080828437600092018290525060408051602081019091529081529250610ea5915050565b7f71b07cde1bf4670e4d9071781d1600da1851a49fa9885c768f5a05f0ffb13db3878686868660405161093e95949392919061201c565b60405180910390a150505050505050565b606081518351146109b45760405162461bcd60e51b815260206004820152602960248201527f455243313135353a206163636f756e747320616e6420696473206c656e677468604482015268040dad2e6dac2e8c6d60bb1b6064820152608401610371565b600083516001600160401b038111156109cf576109cf6115e2565b6040519080825280602002602001820160405280156109f8578160200160208202803683370190505b50905060005b8451811015610a7057610a43858281518110610a1c57610a1c611be3565b6020026020010151858381518110610a3657610a36611be3565b602002602001015161030a565b828281518110610a5557610a55611be3565b6020908102919091010152610a6981611e70565b90506109fe565b509392505050565b60058181548110610a8857600080fd5b9060005260206000209060050201600091509050806000015490806001015490806002015490806003018054610abd90611b32565b80601f0160208091040260200160405190810160405280929190818152602001828054610ae990611b32565b8015610b365780601f10610b0b57610100808354040283529160200191610b36565b820191906000526020600020905b815481529060010190602001808311610b1957829003601f168201915b505050505090806004018054610b4b90611b32565b80601f0160208091040260200160405190810160405280929190818152602001828054610b7790611b32565b8015610bc45780601f10610b9957610100808354040283529160200191610bc4565b820191906000526020600020905b815481529060010190602001808311610ba757829003601f168201915b5050505050905085565b610bd6610e4b565b610be0600061102a565b565b610bed33838361107c565b5050565b6001600160a01b038516331480610c0d5750610c0d853361029c565b610c295760405162461bcd60e51b815260040161037190611b6c565b6104cc858585858561115c565b610c3e610e4b565b6001600160a01b038116610ca35760405162461bcd60e51b815260206004820152602660248201527f4f776e61626c653a206e6577206f776e657220697320746865207a65726f206160448201526564647265737360d01b6064820152608401610371565b610cac8161102a565b50565b8151835114610cd05760405162461bcd60e51b815260040161037190612054565b6001600160a01b038416610cf65760405162461bcd60e51b81526004016103719061209c565b3360005b8451811015610ddd576000858281518110610d1757610d17611be3565b602002602001015190506000858381518110610d3557610d35611be3565b602090810291909101810151600084815280835260408082206001600160a01b038e168352909352919091205490915081811015610d855760405162461bcd60e51b8152600401610371906120e1565b6000838152602081815260408083206001600160a01b038e8116855292528083208585039055908b16825281208054849290610dc2908490611bd0565b9250508190555050505080610dd690611e70565b9050610cfa565b50846001600160a01b0316866001600160a01b0316826001600160a01b03167f4a39dc06d4c0dbc64b70af90fd698a233a518aa5d07e595d983b8c0526c8f7fb8787604051610e2d92919061212b565b60405180910390a4610e43818787878787611286565b505050505050565b6003546001600160a01b03163314610be05760405162461bcd60e51b815260206004820181905260248201527f4f776e61626c653a2063616c6c6572206973206e6f7420746865206f776e65726044820152606401610371565b6001600160a01b038416610f055760405162461bcd60e51b815260206004820152602160248201527f455243313135353a206d696e7420746f20746865207a65726f206164647265736044820152607360f81b6064820152608401610371565b8151835114610f265760405162461bcd60e51b815260040161037190612054565b3360005b8451811015610fc257838181518110610f4557610f45611be3565b6020026020010151600080878481518110610f6257610f62611be3565b602002602001015181526020019081526020016000206000886001600160a01b03166001600160a01b031681526020019081526020016000206000828254610faa9190611bd0565b90915550819050610fba81611e70565b915050610f2a565b50846001600160a01b031660006001600160a01b0316826001600160a01b03167f4a39dc06d4c0dbc64b70af90fd698a233a518aa5d07e595d983b8c0526c8f7fb878760405161101392919061212b565b60405180910390a46104cc81600087878787611286565b600380546001600160a01b038381166001600160a01b0319831681179093556040519116919082907f8be0079c531659141344cd1fd0a4f28419497f9722a3daafe3b4186f6b6457e090600090a35050565b816001600160a01b0316836001600160a01b0316036110ef5760405162461bcd60e51b815260206004820152602960248201527f455243313135353a2073657474696e6720617070726f76616c20737461747573604482015268103337b91039b2b63360b91b6064820152608401610371565b6001600160a01b03838116600081815260016020908152604080832094871680845294825291829020805460ff191686151590811790915591519182527f17307eab39ab6107e8899845ad3d59bd9653f200f220920489ca2b5937696c31910160405180910390a3505050565b6001600160a01b0384166111825760405162461bcd60e51b81526004016103719061209c565b33600061118e856113ea565b9050600061119b856113ea565b90506000868152602081815260408083206001600160a01b038c168452909152902054858110156111de5760405162461bcd60e51b8152600401610371906120e1565b6000878152602081815260408083206001600160a01b038d8116855292528083208985039055908a1682528120805488929061121b908490611bd0565b909155505060408051888152602081018890526001600160a01b03808b16928c821692918816917fc3d58168c5ae7397731d063d5bbf3d657854427343f4c083240f7aacaa2d0f62910160405180910390a461127b848a8a8a8a8a611435565b505050505050505050565b6001600160a01b0384163b15610e435760405163bc197c8160e01b81526001600160a01b0385169063bc197c81906112ca9089908990889088908890600401612159565b6020604051808303816000875af1925050508015611305575060408051601f3d908101601f19168201909252611302918101906121ab565b60015b6113b1576113116121c8565b806308c379a00361134a57506113256121e4565b80611330575061134c565b8060405162461bcd60e51b815260040161037191906115cf565b505b60405162461bcd60e51b815260206004820152603460248201527f455243313135353a207472616e7366657220746f206e6f6e2d455243313135356044820152732932b1b2b4bb32b91034b6b83632b6b2b73a32b960611b6064820152608401610371565b6001600160e01b0319811663bc197c8160e01b146113e15760405162461bcd60e51b81526004016103719061226d565b50505050505050565b6040805160018082528183019092526060916000919060208083019080368337019050509050828160008151811061142457611424611be3565b602090810291909101015292915050565b6001600160a01b0384163b15610e435760405163f23a6e6160e01b81526001600160a01b0385169063f23a6e619061147990899089908890889088906004016122b5565b6020604051808303816000875af19250505080156114b4575060408051601f3d908101601f191682019092526114b1918101906121ab565b60015b6114c0576113116121c8565b6001600160e01b0319811663f23a6e6160e01b146113e15760405162461bcd60e51b81526004016103719061226d565b80356001600160a01b038116811461150757600080fd5b919050565b6000806040838503121561151f57600080fd5b611528836114f0565b946020939093013593505050565b6001600160e01b031981168114610cac57600080fd5b60006020828403121561155e57600080fd5b813561156981611536565b9392505050565b60006020828403121561158257600080fd5b5035919050565b6000815180845260005b818110156115af57602081850181015186830182015201611593565b506000602082860101526020601f19601f83011685010191505092915050565b6020815260006115696020830184611589565b634e487b7160e01b600052604160045260246000fd5b601f8201601f191681016001600160401b038111828210171561161d5761161d6115e2565b6040525050565b60006001600160401b0382111561163d5761163d6115e2565b5060051b60200190565b600082601f83011261165857600080fd5b8135602061166582611624565b60405161167282826115f8565b83815260059390931b850182019282810191508684111561169257600080fd5b8286015b848110156116ad5780358352918301918301611696565b509695505050505050565b600082601f8301126116c957600080fd5b81356001600160401b038111156116e2576116e26115e2565b6040516116f9601f8301601f1916602001826115f8565b81815284602083860101111561170e57600080fd5b816020850160208301376000918101602001919091529392505050565b600080600080600060a0868803121561174357600080fd5b61174c866114f0565b945061175a602087016114f0565b935060408601356001600160401b038082111561177657600080fd5b61178289838a01611647565b9450606088013591508082111561179857600080fd5b6117a489838a01611647565b935060808801359150808211156117ba57600080fd5b506117c7888289016116b8565b9150509295509295909350565b60008083601f8401126117e657600080fd5b5081356001600160401b038111156117fd57600080fd5b6020830191508360208260051b850101111561181857600080fd5b9250929050565b6000806020838503121561183257600080fd5b82356001600160401b0381111561184857600080fd5b611854858286016117d4565b90969095509350505050565b6000806000806000806080878903121561187957600080fd5b611882876114f0565b95506020870135945060408701356001600160401b03808211156118a557600080fd5b6118b18a838b016117d4565b909650945060608901359150808211156118ca57600080fd5b506118d789828a016117d4565b979a9699509497509295939492505050565b600080604083850312156118fc57600080fd5b82356001600160401b038082111561191357600080fd5b818501915085601f83011261192757600080fd5b8135602061193482611624565b60405161194182826115f8565b83815260059390931b850182019282810191508984111561196157600080fd5b948201945b8386101561198657611977866114f0565b82529482019490820190611966565b9650508601359250508082111561199c57600080fd5b506119a985828601611647565b9150509250929050565b600081518084526020808501945080840160005b838110156119e3578151875295820195908201906001016119c7565b509495945050505050565b60208152600061156960208301846119b3565b85815284602082015283604082015260a060608201526000611a2660a0830185611589565b8281036080840152611a388185611589565b98975050505050505050565b60008060408385031215611a5757600080fd5b611a60836114f0565b915060208301358015158114611a7557600080fd5b809150509250929050565b60008060408385031215611a9357600080fd5b611a9c836114f0565b9150611aaa602084016114f0565b90509250929050565b600080600080600060a08688031215611acb57600080fd5b611ad4866114f0565b9450611ae2602087016114f0565b9350604086013592506060860135915060808601356001600160401b03811115611b0b57600080fd5b6117c7888289016116b8565b600060208284031215611b2957600080fd5b611569826114f0565b600181811c90821680611b4657607f821691505b602082108103611b6657634e487b7160e01b600052602260045260246000fd5b50919050565b6020808252602e908201527f455243313135353a2063616c6c6572206973206e6f7420746f6b656e206f776e60408201526d195c881bdc88185c1c1c9bdd995960921b606082015260800190565b634e487b7160e01b600052601160045260246000fd5b8082018082111561039d5761039d611bba565b634e487b7160e01b600052603260045260246000fd5b60008235609e19833603018112611c0f57600080fd5b9190910192915050565b6000808335601e19843603018112611c3057600080fd5b8301803591506001600160401b03821115611c4a57600080fd5b60200191503681900382131561181857600080fd5b601f821115611ca557600081815260208120601f850160051c81016020861015611c865750805b601f850160051c820191505b81811015610e4357828155600101611c92565b505050565b6001600160401b03831115611cc157611cc16115e2565b611cd583611ccf8354611b32565b83611c5f565b6000601f841160018114611d095760008515611cf15750838201355b600019600387901b1c1916600186901b1783556104cc565b600083815260209020601f19861690835b82811015611d3a5786850135825560209485019460019092019101611d1a565b5086821015611d575760001960f88860031b161c19848701351681555b505060018560011b0183555050505050565b813581556001602080840135828401556040840135600284015560038301611d946060860186611c19565b6001600160401b03811115611dab57611dab6115e2565b611dbf81611db98554611b32565b85611c5f565b6000601f821160018114611df35760008315611ddb5750838201355b600019600385901b1c1916600184901b178555611e48565b600085815260209020601f19841690835b82811015611e215786850135825593880193908901908801611e04565b5084821015611e3e5760001960f88660031b161c19848701351681555b50508683881b0185555b50505050505050611e5c6080830183611c19565b611e6a818360048601611caa565b50505050565b600060018201611e8257611e82611bba565b5060010190565b6000808335601e19843603018112611ea057600080fd5b83016020810192503590506001600160401b03811115611ebf57600080fd5b80360382131561181857600080fd5b81835281816020850137506000828201602090810191909152601f909101601f19169091010190565b60208082528181018390526000906040808401600586901b850182018785805b89811015611fb157888403603f190185528235368c9003609e19018112611f3c578283fd5b8b01803585528781013588860152868101358786015260a06060611f6281840184611e89565b83838a0152611f74848a018284611ece565b93505050506080611f8781840184611e89565b935087830382890152611f9b838583611ece565b988b019897505050938801935050600101611f17565b50919998505050505050505050565b8181038181111561039d5761039d611bba565b808202811582820484141761039d5761039d611bba565b81835260006001600160fb1b0383111561200357600080fd5b8260051b80836020870137939093016020019392505050565b6001600160a01b03861681526060602082018190526000906120419083018688611fea565b8281036040840152611a38818587611fea565b60208082526028908201527f455243313135353a2069647320616e6420616d6f756e7473206c656e677468206040820152670dad2e6dac2e8c6d60c31b606082015260800190565b60208082526025908201527f455243313135353a207472616e7366657220746f20746865207a65726f206164604082015264647265737360d81b606082015260800190565b6020808252602a908201527f455243313135353a20696e73756666696369656e742062616c616e636520666f60408201526939103a3930b739b332b960b11b606082015260800190565b60408152600061213e60408301856119b3565b828103602084015261215081856119b3565b95945050505050565b6001600160a01b0386811682528516602082015260a060408201819052600090612185908301866119b3565b828103606084015261219781866119b3565b90508281036080840152611a388185611589565b6000602082840312156121bd57600080fd5b815161156981611536565b600060033d11156121e15760046000803e5060005160e01c5b90565b600060443d10156121f25790565b6040516003193d81016004833e81513d6001600160401b03816024840111818411171561222157505050505090565b82850191508151818111156122395750505050505090565b843d87010160208285010111156122535750505050505090565b612262602082860101876115f8565b509095945050505050565b60208082526028908201527f455243313135353a204552433131353552656365697665722072656a656374656040820152676420746f6b656e7360c01b606082015260800190565b6001600160a01b03868116825285166020820152604081018490526060810183905260a0608082018190526000906122ef90830184611589565b97965050505050505056fea2646970667358221220bafe3390d3fae9321ed447721490f319315564513e409c17236c104fab0fd51b64736f6c63430008110033",
  "immutableReferences": {},
  "source": "// SPDX-License-Identifier: GPL-3.0-or-later\npragma solidity 0.8.17;\n\nimport \"../node_modules/@openzeppelin/contracts/token/ERC1155/ERC1155.sol\";\nimport \"../node_modules/@openzeppelin/contracts/access/Ownable.sol\";\n\n\n// Ticket contract\ncontract TicketV2 is ERC1155, Ownable {\n    address eventOwner;\n    uint constant FEES = 5; // 5%\n\n    struct TicketInfo {\n        uint price;\n        uint maxAmount;\n        uint ticketsAvailables;\n        string name;\n        string image;\n    }\n\n    TicketInfo[] public tickets;\n\n    event TicketsCreated(TicketInfo[] ticketsInfo);\n    event TicketsMinted(address minter, uint[] ids, uint[] amounts);\n\n    modifier onlyEventOwner() {\n        require(msg.sender == eventOwner, \"Not allowed\");\n        _;\n    }\n\n    constructor (address _eventOwner) ERC1155('') {\n      eventOwner = _eventOwner;\n    }\n\n    function createTickets(\n        TicketInfo[] calldata _ticketsInfo\n    ) external onlyOwner {\n        require(tickets.length + _ticketsInfo.length < 10, \"To much tickets\");\n        \n        for(uint i = 0; i<_ticketsInfo.length; i++) {\n            tickets.push(_ticketsInfo[i]);\n        }\n\n        emit TicketsCreated(_ticketsInfo);\n    }\n\n    function mintTickets(\n        address _minter,\n        uint _msgValue,\n        uint[] calldata _ids,\n        uint[] calldata _amounts\n    ) external payable onlyOwner() {\n        require(_ids.length<=tickets.length, \"To much tickets ids\");\n        for(uint i = 0; i<_ids.length; i++) {\n            require(_ids[i]<tickets.length, \"Ticket id not found\");\n            require(_amounts[i]<tickets[_ids[i]].ticketsAvailables, \"Not enough tickets availables for this id\");\n            tickets[_ids[i]].ticketsAvailables -= _amounts[i];\n        }\n        uint totalTicketsPrice = 0;\n        for(uint i = 0; i<_ids.length; i++) {\n            totalTicketsPrice += tickets[_ids[i]].price * _amounts[i];\n        }\n        require(_msgValue == totalTicketsPrice, \"Insuficient funds\");\n        _mintBatch(_minter, _ids, _amounts, '');\n        \n        emit TicketsMinted(_minter, _ids, _amounts);\n\n    }\n\n}\n",
  "sourcePath": "/home/badisse/Perso/Alyra/tickets-tocken-v2/truffle/contracts/TicketV2.sol",
  "compiler": {
    "name": "solc",
    "version": "0.8.17+commit.8df45f5f.Emscripten.clang"
  },
  "schemaVersion": "3.4.10",
  "updatedAt": "2022-12-09T22:33:15.046Z",
  "networkType": "ethereum",
  "devdoc": {
    "kind": "dev",
    "methods": {
      "balanceOf(address,uint256)": {
        "details": "See {IERC1155-balanceOf}. Requirements: - `account` cannot be the zero address."
      },
      "balanceOfBatch(address[],uint256[])": {
        "details": "See {IERC1155-balanceOfBatch}. Requirements: - `accounts` and `ids` must have the same length."
      },
      "isApprovedForAll(address,address)": {
        "details": "See {IERC1155-isApprovedForAll}."
      },
      "owner()": {
        "details": "Returns the address of the current owner."
      },
      "renounceOwnership()": {
        "details": "Leaves the contract without owner. It will not be possible to call `onlyOwner` functions anymore. Can only be called by the current owner. NOTE: Renouncing ownership will leave the contract without an owner, thereby removing any functionality that is only available to the owner."
      },
      "safeBatchTransferFrom(address,address,uint256[],uint256[],bytes)": {
        "details": "See {IERC1155-safeBatchTransferFrom}."
      },
      "safeTransferFrom(address,address,uint256,uint256,bytes)": {
        "details": "See {IERC1155-safeTransferFrom}."
      },
      "setApprovalForAll(address,bool)": {
        "details": "See {IERC1155-setApprovalForAll}."
      },
      "supportsInterface(bytes4)": {
        "details": "See {IERC165-supportsInterface}."
      },
      "transferOwnership(address)": {
        "details": "Transfers ownership of the contract to a new account (`newOwner`). Can only be called by the current owner."
      },
      "uri(uint256)": {
        "details": "See {IERC1155MetadataURI-uri}. This implementation returns the same URI for *all* token types. It relies on the token type ID substitution mechanism https://eips.ethereum.org/EIPS/eip-1155#metadata[defined in the EIP]. Clients calling this function must replace the `\\{id\\}` substring with the actual token type ID."
      }
    },
    "version": 1
  },
  "userdoc": {
    "kind": "user",
    "methods": {},
    "version": 1
  }
}