{
  "contractName": "Ticket",
  "abi": [
    {
      "inputs": [
        {
          "internalType": "string",
          "name": "_name",
          "type": "string"
        },
        {
          "internalType": "string",
          "name": "_symbol",
          "type": "string"
        },
        {
          "internalType": "uint256",
          "name": "_price",
          "type": "uint256"
        },
        {
          "internalType": "uint256",
          "name": "_maxTicketsSupply",
          "type": "uint256"
        },
        {
          "internalType": "string",
          "name": "_uri",
          "type": "string"
        },
        {
          "internalType": "address",
          "name": "_eventOwner",
          "type": "address"
        }
      ],
      "stateMutability": "nonpayable",
      "type": "constructor"
    },
    {
      "anonymous": false,
      "inputs": [
        {
          "indexed": true,
          "internalType": "address",
          "name": "owner",
          "type": "address"
        },
        {
          "indexed": true,
          "internalType": "address",
          "name": "approved",
          "type": "address"
        },
        {
          "indexed": true,
          "internalType": "uint256",
          "name": "tokenId",
          "type": "uint256"
        }
      ],
      "name": "Approval",
      "type": "event"
    },
    {
      "anonymous": false,
      "inputs": [
        {
          "indexed": true,
          "internalType": "address",
          "name": "owner",
          "type": "address"
        },
        {
          "indexed": true,
          "internalType": "address",
          "name": "operator",
          "type": "address"
        },
        {
          "indexed": false,
          "internalType": "bool",
          "name": "approved",
          "type": "bool"
        }
      ],
      "name": "ApprovalForAll",
      "type": "event"
    },
    {
      "anonymous": false,
      "inputs": [
        {
          "indexed": false,
          "internalType": "uint256",
          "name": "id",
          "type": "uint256"
        },
        {
          "indexed": false,
          "internalType": "address",
          "name": "owner",
          "type": "address"
        }
      ],
      "name": "TicketMinted",
      "type": "event"
    },
    {
      "anonymous": false,
      "inputs": [
        {
          "indexed": false,
          "internalType": "uint256",
          "name": "id",
          "type": "uint256"
        },
        {
          "indexed": false,
          "internalType": "address",
          "name": "owner",
          "type": "address"
        },
        {
          "indexed": false,
          "internalType": "uint256",
          "name": "price",
          "type": "uint256"
        }
      ],
      "name": "TicketSold",
      "type": "event"
    },
    {
      "anonymous": false,
      "inputs": [
        {
          "indexed": true,
          "internalType": "address",
          "name": "from",
          "type": "address"
        },
        {
          "indexed": true,
          "internalType": "address",
          "name": "to",
          "type": "address"
        },
        {
          "indexed": true,
          "internalType": "uint256",
          "name": "tokenId",
          "type": "uint256"
        }
      ],
      "name": "Transfer",
      "type": "event"
    },
    {
      "inputs": [],
      "name": "_ticketIds",
      "outputs": [
        {
          "internalType": "uint256",
          "name": "_value",
          "type": "uint256"
        }
      ],
      "stateMutability": "view",
      "type": "function"
    },
    {
      "inputs": [
        {
          "internalType": "address",
          "name": "to",
          "type": "address"
        },
        {
          "internalType": "uint256",
          "name": "tokenId",
          "type": "uint256"
        }
      ],
      "name": "approve",
      "outputs": [],
      "stateMutability": "nonpayable",
      "type": "function"
    },
    {
      "inputs": [
        {
          "internalType": "address",
          "name": "owner",
          "type": "address"
        }
      ],
      "name": "balanceOf",
      "outputs": [
        {
          "internalType": "uint256",
          "name": "",
          "type": "uint256"
        }
      ],
      "stateMutability": "view",
      "type": "function"
    },
    {
      "inputs": [],
      "name": "eventOwner",
      "outputs": [
        {
          "internalType": "address",
          "name": "",
          "type": "address"
        }
      ],
      "stateMutability": "view",
      "type": "function"
    },
    {
      "inputs": [
        {
          "internalType": "uint256",
          "name": "tokenId",
          "type": "uint256"
        }
      ],
      "name": "getApproved",
      "outputs": [
        {
          "internalType": "address",
          "name": "",
          "type": "address"
        }
      ],
      "stateMutability": "view",
      "type": "function"
    },
    {
      "inputs": [
        {
          "internalType": "address",
          "name": "owner",
          "type": "address"
        },
        {
          "internalType": "address",
          "name": "operator",
          "type": "address"
        }
      ],
      "name": "isApprovedForAll",
      "outputs": [
        {
          "internalType": "bool",
          "name": "",
          "type": "bool"
        }
      ],
      "stateMutability": "view",
      "type": "function"
    },
    {
      "inputs": [],
      "name": "maxTicketsSupply",
      "outputs": [
        {
          "internalType": "uint256",
          "name": "",
          "type": "uint256"
        }
      ],
      "stateMutability": "view",
      "type": "function"
    },
    {
      "inputs": [],
      "name": "name",
      "outputs": [
        {
          "internalType": "string",
          "name": "",
          "type": "string"
        }
      ],
      "stateMutability": "view",
      "type": "function"
    },
    {
      "inputs": [
        {
          "internalType": "uint256",
          "name": "tokenId",
          "type": "uint256"
        }
      ],
      "name": "ownerOf",
      "outputs": [
        {
          "internalType": "address",
          "name": "",
          "type": "address"
        }
      ],
      "stateMutability": "view",
      "type": "function"
    },
    {
      "inputs": [],
      "name": "price",
      "outputs": [
        {
          "internalType": "uint256",
          "name": "",
          "type": "uint256"
        }
      ],
      "stateMutability": "view",
      "type": "function"
    },
    {
      "inputs": [
        {
          "internalType": "address",
          "name": "from",
          "type": "address"
        },
        {
          "internalType": "address",
          "name": "to",
          "type": "address"
        },
        {
          "internalType": "uint256",
          "name": "tokenId",
          "type": "uint256"
        }
      ],
      "name": "safeTransferFrom",
      "outputs": [],
      "stateMutability": "nonpayable",
      "type": "function"
    },
    {
      "inputs": [
        {
          "internalType": "address",
          "name": "from",
          "type": "address"
        },
        {
          "internalType": "address",
          "name": "to",
          "type": "address"
        },
        {
          "internalType": "uint256",
          "name": "tokenId",
          "type": "uint256"
        },
        {
          "internalType": "bytes",
          "name": "data",
          "type": "bytes"
        }
      ],
      "name": "safeTransferFrom",
      "outputs": [],
      "stateMutability": "nonpayable",
      "type": "function"
    },
    {
      "inputs": [
        {
          "internalType": "address",
          "name": "operator",
          "type": "address"
        },
        {
          "internalType": "bool",
          "name": "approved",
          "type": "bool"
        }
      ],
      "name": "setApprovalForAll",
      "outputs": [],
      "stateMutability": "nonpayable",
      "type": "function"
    },
    {
      "inputs": [
        {
          "internalType": "bytes4",
          "name": "interfaceId",
          "type": "bytes4"
        }
      ],
      "name": "supportsInterface",
      "outputs": [
        {
          "internalType": "bool",
          "name": "",
          "type": "bool"
        }
      ],
      "stateMutability": "view",
      "type": "function"
    },
    {
      "inputs": [],
      "name": "symbol",
      "outputs": [
        {
          "internalType": "string",
          "name": "",
          "type": "string"
        }
      ],
      "stateMutability": "view",
      "type": "function"
    },
    {
      "inputs": [
        {
          "internalType": "uint256",
          "name": "tokenId",
          "type": "uint256"
        }
      ],
      "name": "tokenURI",
      "outputs": [
        {
          "internalType": "string",
          "name": "",
          "type": "string"
        }
      ],
      "stateMutability": "view",
      "type": "function"
    },
    {
      "inputs": [
        {
          "internalType": "address",
          "name": "from",
          "type": "address"
        },
        {
          "internalType": "address",
          "name": "to",
          "type": "address"
        },
        {
          "internalType": "uint256",
          "name": "tokenId",
          "type": "uint256"
        }
      ],
      "name": "transferFrom",
      "outputs": [],
      "stateMutability": "nonpayable",
      "type": "function"
    },
    {
      "inputs": [],
      "name": "uri",
      "outputs": [
        {
          "internalType": "string",
          "name": "",
          "type": "string"
        }
      ],
      "stateMutability": "view",
      "type": "function"
    },
    {
      "inputs": [],
      "name": "mintTicket",
      "outputs": [],
      "stateMutability": "payable",
      "type": "function"
    }
  ],
  "bytecode": "0x60806040523480156200001157600080fd5b5060405162001a6638038062001a66833981016040819052620000349162000160565b85856000620000448382620002b6565b506001620000538282620002b6565b5050506007849055600883905560096200006e8382620002b6565b50600a80546001600160a01b0319166001600160a01b039290921691909117905550620003829350505050565b634e487b7160e01b600052604160045260246000fd5b600082601f830112620000c357600080fd5b81516001600160401b0380821115620000e057620000e06200009b565b604051601f8301601f19908116603f011681019082821181831017156200010b576200010b6200009b565b816040528381526020925086838588010111156200012857600080fd5b600091505b838210156200014c57858201830151818301840152908201906200012d565b600093810190920192909252949350505050565b60008060008060008060c087890312156200017a57600080fd5b86516001600160401b03808211156200019257600080fd5b620001a08a838b01620000b1565b97506020890151915080821115620001b757600080fd5b620001c58a838b01620000b1565b965060408901519550606089015194506080890151915080821115620001ea57600080fd5b50620001f989828a01620000b1565b60a089015190935090506001600160a01b03811681146200021957600080fd5b809150509295509295509295565b600181811c908216806200023c57607f821691505b6020821081036200025d57634e487b7160e01b600052602260045260246000fd5b50919050565b601f821115620002b157600081815260208120601f850160051c810160208610156200028c5750805b601f850160051c820191505b81811015620002ad5782815560010162000298565b5050505b505050565b81516001600160401b03811115620002d257620002d26200009b565b620002ea81620002e3845462000227565b8462000263565b602080601f831160018114620003225760008415620003095750858301515b600019600386901b1c1916600185901b178555620002ad565b600085815260208120601f198616915b82811015620003535788860151825594840194600190910190840162000332565b5085821015620003725787850151600019600388901b60f8161c191681555b5050505050600190811b01905550565b6116d480620003926000396000f3fe6080604052600436106101145760003560e01c8063573c80fa116100a0578063a22cb46511610064578063a22cb465146102d8578063b88d4fde146102f8578063c87b56dd14610318578063e985e9c514610338578063eac989f81461035857600080fd5b8063573c80fa146102655780636352211e1461026d57806370a082311461028d57806395d89b41146102ad578063a035b1fe146102c257600080fd5b8063095ea7b3116100e7578063095ea7b3146101cc57806320214134146101ee57806323b872dd1461020e57806342842e0e1461022e578063548f8b511461024e57600080fd5b806301ffc9a71461011957806306fdde031461014e578063081812fc1461017057806308648d87146101a8575b600080fd5b34801561012557600080fd5b50610139610134366004611224565b61036d565b60405190151581526020015b60405180910390f35b34801561015a57600080fd5b506101636103bf565b6040516101459190611291565b34801561017c57600080fd5b5061019061018b3660046112a4565b610451565b6040516001600160a01b039091168152602001610145565b3480156101b457600080fd5b506101be60085481565b604051908152602001610145565b3480156101d857600080fd5b506101ec6101e73660046112d9565b610478565b005b3480156101fa57600080fd5b50600a54610190906001600160a01b031681565b34801561021a57600080fd5b506101ec610229366004611303565b610592565b34801561023a57600080fd5b506101ec610249366004611303565b6105c3565b34801561025a57600080fd5b506006546101be9081565b6101ec6105de565b34801561027957600080fd5b506101906102883660046112a4565b610778565b34801561029957600080fd5b506101be6102a836600461133f565b6107d8565b3480156102b957600080fd5b5061016361085e565b3480156102ce57600080fd5b506101be60075481565b3480156102e457600080fd5b506101ec6102f336600461135a565b61086d565b34801561030457600080fd5b506101ec6103133660046113ac565b610878565b34801561032457600080fd5b506101636103333660046112a4565b6108b0565b34801561034457600080fd5b50610139610353366004611488565b610924565b34801561036457600080fd5b50610163610952565b60006001600160e01b031982166380ac58cd60e01b148061039e57506001600160e01b03198216635b5e139f60e01b145b806103b957506301ffc9a760e01b6001600160e01b03198316145b92915050565b6060600080546103ce906114bb565b80601f01602080910402602001604051908101604052809291908181526020018280546103fa906114bb565b80156104475780601f1061041c57610100808354040283529160200191610447565b820191906000526020600020905b81548152906001019060200180831161042a57829003601f168201915b5050505050905090565b600061045c826109e0565b506000908152600460205260409020546001600160a01b031690565b600061048382610778565b9050806001600160a01b0316836001600160a01b0316036104f55760405162461bcd60e51b815260206004820152602160248201527f4552433732313a20617070726f76616c20746f2063757272656e74206f776e656044820152603960f91b60648201526084015b60405180910390fd5b336001600160a01b038216148061051157506105118133610924565b6105835760405162461bcd60e51b815260206004820152603d60248201527f4552433732313a20617070726f76652063616c6c6572206973206e6f7420746f60448201527f6b656e206f776e6572206f7220617070726f76656420666f7220616c6c00000060648201526084016104ec565b61058d8383610a42565b505050565b61059c3382610ab0565b6105b85760405162461bcd60e51b81526004016104ec906114f5565b61058d838383610b0f565b61058d83838360405180602001604052806000815250610878565b600854600654106106225760405162461bcd60e51b815260206004820152600e60248201526d115d995b9d081cdbdb19081bdd5d60921b60448201526064016104ec565b600754341461067f5760405162461bcd60e51b8152602060048201526024808201527f596f75206d7573742073656e6420746865207469636b65742070726963652076604482015263616c756560e01b60648201526084016104ec565b600a546040516000916001600160a01b03169034908381818185875af1925050503d80600081146106cc576040519150601f19603f3d011682016040523d82523d6000602084013e6106d1565b606091505b50509050806107175760405162461bcd60e51b8152602060048201526012602482015271151c985b9cd858dd1a5bdb8819985a5b195960721b60448201526064016104ec565b600061072260065490565b905061072e3382610c80565b604080518281523360208201527f21c3ad7994b754affe27828ad7ab1f306d7a99ab4dbc743ed56d2b2f82620b44910160405180910390a1610774600680546001019055565b5050565b6000818152600260205260408120546001600160a01b0316806103b95760405162461bcd60e51b8152602060048201526018602482015277115490cdcc8c4e881a5b9d985b1a59081d1bdad95b88125160421b60448201526064016104ec565b60006001600160a01b0382166108425760405162461bcd60e51b815260206004820152602960248201527f4552433732313a2061646472657373207a65726f206973206e6f7420612076616044820152683634b21037bbb732b960b91b60648201526084016104ec565b506001600160a01b031660009081526003602052604090205490565b6060600180546103ce906114bb565b610774338383610e19565b6108823383610ab0565b61089e5760405162461bcd60e51b81526004016104ec906114f5565b6108aa84848484610ee7565b50505050565b60606108bb826109e0565b60006108d260408051602081019091526000815290565b905060008151116108f2576040518060200160405280600081525061091d565b806108fc84610f1a565b60405160200161090d929190611542565b6040516020818303038152906040525b9392505050565b6001600160a01b03918216600090815260056020908152604080832093909416825291909152205460ff1690565b6009805461095f906114bb565b80601f016020809104026020016040519081016040528092919081815260200182805461098b906114bb565b80156109d85780601f106109ad576101008083540402835291602001916109d8565b820191906000526020600020905b8154815290600101906020018083116109bb57829003601f168201915b505050505081565b6000818152600260205260409020546001600160a01b0316610a3f5760405162461bcd60e51b8152602060048201526018602482015277115490cdcc8c4e881a5b9d985b1a59081d1bdad95b88125160421b60448201526064016104ec565b50565b600081815260046020526040902080546001600160a01b0319166001600160a01b0384169081179091558190610a7782610778565b6001600160a01b03167f8c5be1e5ebec7d5bd14f71427d1e84f3dd0314c0f7b2291e5b200ac8c7c3b92560405160405180910390a45050565b600080610abc83610778565b9050806001600160a01b0316846001600160a01b03161480610ae35750610ae38185610924565b80610b075750836001600160a01b0316610afc84610451565b6001600160a01b0316145b949350505050565b826001600160a01b0316610b2282610778565b6001600160a01b031614610b485760405162461bcd60e51b81526004016104ec90611571565b6001600160a01b038216610baa5760405162461bcd60e51b8152602060048201526024808201527f4552433732313a207472616e7366657220746f20746865207a65726f206164646044820152637265737360e01b60648201526084016104ec565b610bb78383836001610fad565b826001600160a01b0316610bca82610778565b6001600160a01b031614610bf05760405162461bcd60e51b81526004016104ec90611571565b600081815260046020908152604080832080546001600160a01b03199081169091556001600160a01b0387811680865260038552838620805460001901905590871680865283862080546001019055868652600290945282852080549092168417909155905184937fddf252ad1be2c89b69c2b068fc378daa952ba7f163c4a11628f55a4df523b3ef91a4505050565b6001600160a01b038216610cd65760405162461bcd60e51b815260206004820181905260248201527f4552433732313a206d696e7420746f20746865207a65726f206164647265737360448201526064016104ec565b6000818152600260205260409020546001600160a01b031615610d3b5760405162461bcd60e51b815260206004820152601c60248201527f4552433732313a20746f6b656e20616c7265616479206d696e7465640000000060448201526064016104ec565b610d49600083836001610fad565b6000818152600260205260409020546001600160a01b031615610dae5760405162461bcd60e51b815260206004820152601c60248201527f4552433732313a20746f6b656e20616c7265616479206d696e7465640000000060448201526064016104ec565b6001600160a01b038216600081815260036020908152604080832080546001019055848352600290915280822080546001600160a01b0319168417905551839291907fddf252ad1be2c89b69c2b068fc378daa952ba7f163c4a11628f55a4df523b3ef908290a45050565b816001600160a01b0316836001600160a01b031603610e7a5760405162461bcd60e51b815260206004820152601960248201527f4552433732313a20617070726f766520746f2063616c6c65720000000000000060448201526064016104ec565b6001600160a01b03838116600081815260056020908152604080832094871680845294825291829020805460ff191686151590811790915591519182527f17307eab39ab6107e8899845ad3d59bd9653f200f220920489ca2b5937696c31910160405180910390a3505050565b610ef2848484610b0f565b610efe84848484611035565b6108aa5760405162461bcd60e51b81526004016104ec906115b6565b60606000610f2783611136565b600101905060008167ffffffffffffffff811115610f4757610f47611396565b6040519080825280601f01601f191660200182016040528015610f71576020820181803683370190505b5090508181016020015b600019016f181899199a1a9b1b9c1cb0b131b232b360811b600a86061a8153600a8504945084610f7b57509392505050565b60018111156108aa576001600160a01b03841615610ff3576001600160a01b03841660009081526003602052604081208054839290610fed90849061161e565b90915550505b6001600160a01b038316156108aa576001600160a01b0383166000908152600360205260408120805483929061102a908490611631565b909155505050505050565b60006001600160a01b0384163b1561112b57604051630a85bd0160e11b81526001600160a01b0385169063150b7a0290611079903390899088908890600401611644565b6020604051808303816000875af19250505080156110b4575060408051601f3d908101601f191682019092526110b191810190611681565b60015b611111573d8080156110e2576040519150601f19603f3d011682016040523d82523d6000602084013e6110e7565b606091505b5080516000036111095760405162461bcd60e51b81526004016104ec906115b6565b805181602001fd5b6001600160e01b031916630a85bd0160e11b149050610b07565b506001949350505050565b60008072184f03e93ff9f4daa797ed6e38ed64bf6a1f0160401b83106111755772184f03e93ff9f4daa797ed6e38ed64bf6a1f0160401b830492506040015b6d04ee2d6d415b85acef810000000083106111a1576d04ee2d6d415b85acef8100000000830492506020015b662386f26fc1000083106111bf57662386f26fc10000830492506010015b6305f5e10083106111d7576305f5e100830492506008015b61271083106111eb57612710830492506004015b606483106111fd576064830492506002015b600a83106103b95760010192915050565b6001600160e01b031981168114610a3f57600080fd5b60006020828403121561123657600080fd5b813561091d8161120e565b60005b8381101561125c578181015183820152602001611244565b50506000910152565b6000815180845261127d816020860160208601611241565b601f01601f19169290920160200192915050565b60208152600061091d6020830184611265565b6000602082840312156112b657600080fd5b5035919050565b80356001600160a01b03811681146112d457600080fd5b919050565b600080604083850312156112ec57600080fd5b6112f5836112bd565b946020939093013593505050565b60008060006060848603121561131857600080fd5b611321846112bd565b925061132f602085016112bd565b9150604084013590509250925092565b60006020828403121561135157600080fd5b61091d826112bd565b6000806040838503121561136d57600080fd5b611376836112bd565b91506020830135801515811461138b57600080fd5b809150509250929050565b634e487b7160e01b600052604160045260246000fd5b600080600080608085870312156113c257600080fd5b6113cb856112bd565b93506113d9602086016112bd565b925060408501359150606085013567ffffffffffffffff808211156113fd57600080fd5b818701915087601f83011261141157600080fd5b81358181111561142357611423611396565b604051601f8201601f19908116603f0116810190838211818310171561144b5761144b611396565b816040528281528a602084870101111561146457600080fd5b82602086016020830137600060208483010152809550505050505092959194509250565b6000806040838503121561149b57600080fd5b6114a4836112bd565b91506114b2602084016112bd565b90509250929050565b600181811c908216806114cf57607f821691505b6020821081036114ef57634e487b7160e01b600052602260045260246000fd5b50919050565b6020808252602d908201527f4552433732313a2063616c6c6572206973206e6f7420746f6b656e206f776e6560408201526c1c881bdc88185c1c1c9bdd9959609a1b606082015260800190565b60008351611554818460208801611241565b835190830190611568818360208801611241565b01949350505050565b60208082526025908201527f4552433732313a207472616e736665722066726f6d20696e636f72726563742060408201526437bbb732b960d91b606082015260800190565b60208082526032908201527f4552433732313a207472616e7366657220746f206e6f6e20455243373231526560408201527131b2b4bb32b91034b6b83632b6b2b73a32b960711b606082015260800190565b634e487b7160e01b600052601160045260246000fd5b818103818111156103b9576103b9611608565b808201808211156103b9576103b9611608565b6001600160a01b038581168252841660208201526040810183905260806060820181905260009061167790830184611265565b9695505050505050565b60006020828403121561169357600080fd5b815161091d8161120e56fea264697066735822122006695c5b2c93e81a95cf2e30ca881a49cccb39ddf2d87c9e6e2756c9c9620ac564736f6c63430008110033",
  "immutableReferences": {},
  "source": "// SPDX-License-Identifier: GPL-3.0-or-later\npragma solidity 0.8.17;\n\nimport \"../node_modules/@openzeppelin/contracts/token/ERC721/ERC721.sol\";\nimport \"../node_modules/@openzeppelin/contracts/utils/Counters.sol\";\n\n// Ticket contract\ncontract Ticket is ERC721 {\n    using Counters for Counters.Counter;\n    Counters.Counter public _ticketIds;\n\n    uint public price;\n    uint public maxTicketsSupply;\n    string public uri;\n    address public eventOwner;\n\n    // Event for when a ticket is created\n    event TicketMinted(uint id, address owner);\n\n    // Event for when a ticket is sold\n    event TicketSold(uint id, address owner, uint price);\n\n    constructor (\n        string memory _name,\n        string memory _symbol,\n        uint _price,\n        uint _maxTicketsSupply,\n        string memory _uri,\n        address _eventOwner\n    ) ERC721(_name, _symbol) {\n      price = _price;\n      maxTicketsSupply = _maxTicketsSupply;\n      uri = _uri;\n      eventOwner = _eventOwner;\n    }\n\n    // Function to create a new ticket\n    function mintTicket() external payable {\n        require(_ticketIds.current() < maxTicketsSupply, 'Event sold out');\n        require(msg.value == price, 'You must send the ticket price value');\n\n        (bool sent,) = payable(eventOwner).call{value: msg.value}(\"\");\n        require(sent, 'Transaction failed');\n\n        uint id = _ticketIds.current();\n        _mint(msg.sender, id);\n\n        // Emit event to indicate that the ticket has been created\n        emit TicketMinted(id, msg.sender);\n\n        _ticketIds.increment();\n    }\n\n}\n",
  "sourcePath": "/Users/youv/Documents/ALYRA-projects/TicketTokenNewFront/tickets-tocken-v2/truffle/contracts/Ticket.sol",
  "compiler": {
    "name": "solc",
    "version": "0.8.17+commit.8df45f5f.Emscripten.clang"
  },
  "schemaVersion": "3.4.11",
  "updatedAt": "2022-12-11T16:21:51.109Z",
  "devdoc": {
    "kind": "dev",
    "methods": {
      "approve(address,uint256)": {
        "details": "See {IERC721-approve}."
      },
      "balanceOf(address)": {
        "details": "See {IERC721-balanceOf}."
      },
      "getApproved(uint256)": {
        "details": "See {IERC721-getApproved}."
      },
      "isApprovedForAll(address,address)": {
        "details": "See {IERC721-isApprovedForAll}."
      },
      "name()": {
        "details": "See {IERC721Metadata-name}."
      },
      "ownerOf(uint256)": {
        "details": "See {IERC721-ownerOf}."
      },
      "safeTransferFrom(address,address,uint256)": {
        "details": "See {IERC721-safeTransferFrom}."
      },
      "safeTransferFrom(address,address,uint256,bytes)": {
        "details": "See {IERC721-safeTransferFrom}."
      },
      "setApprovalForAll(address,bool)": {
        "details": "See {IERC721-setApprovalForAll}."
      },
      "supportsInterface(bytes4)": {
        "details": "See {IERC165-supportsInterface}."
      },
      "symbol()": {
        "details": "See {IERC721Metadata-symbol}."
      },
      "tokenURI(uint256)": {
        "details": "See {IERC721Metadata-tokenURI}."
      },
      "transferFrom(address,address,uint256)": {
        "details": "See {IERC721-transferFrom}."
      }
    },
    "version": 1
  },
  "userdoc": {
    "kind": "user",
    "methods": {},
    "version": 1
  }
}